:020000040800F2
:100000000000022061370008FD080008FF08000812
:1000100001090008030900080509000800000000A4
:10002000000000000000000000000000F1340008A3
:10003000070900080000000091350008F5350008A8
:10004000B1370008B1370008B1370008B1370008F0
:10005000B1370008B1370008B1370008B1370008E0
:10006000B1370008B1370008B1370008B1370008D0
:10007000B1370008B1370008B1370008B1370008C0
:10008000B1370008B1370008B137000800000000A0
:10009000000000000000000000000000B137000870
:1000A000B137000809090008B1370008B137000866
:1000B000B1370008B137000819090008B137000846
:1000C000B1370008B1370008B1370008B137000870
:1000D000B1370008B1370008B13700080000000050
:1000E000B1370008B1370008B13700080000000040
:1000F000000000000000000000000000B137000810
:1001000000000000B1370008B1370008B13700081F
:1001100000000000000000000000000000000000DF
:10012000B1370008B1370008B1370008B13700080F
:10013000B1370008000000000000000000000000CF
:10014000000000000000000000000000B1370008BF
:10015000B1370008B1370008B13700082909000895
:10016000B1370008B13700080000000000000000AF
:10017000000000000000000000000000000000007F
:1001800000000000B137000800000000000000007F
:08019000B1370008B137000887
:1001A00053B94AB9002908BF00281CBF4FF0FF31DE
:1001B0004FF0FF3000F00CB8ADF1080C6DE904CE43
:1001C00003F032FBDDF804E0DDE9022304B0704700
:1001D000704700BF0348044B834202D0034B03B176
:1001E0001847704710000020100000200000000099
:1001F0000548064B1B1AD90F01EBA301491002D089
:10020000034B03B118477047100000201000002076
:100210000000000010B5064C237843B9FFF7DAFF61
:10022000044B13B10448AFF300800123237010BDC9
:100230001000002000000000E43A000808B5054B5B
:100240001BB105490548AFF30080BDE80840FFF742
:10025000CFBF00BF0000000014000020E43A0008F7
:1002600008B50268034B9A4200D008BD01F076FA47
:10027000FBE700BF0044014072B6FEE700B595B051
:100280003022002108A803F094FA0023039304937A
:100290000593069307930193184A116C41F080511E
:1002A0001164126C02F080520192019A0293144A76
:1002B000116841F440411160126802F44042029218
:1002C000029A012208924FF4803209920E9308A8F4
:1002D00000F03AFD70B90F2303930123049300212A
:1002E00005910691079103A800F07EFF20B915B093
:1002F0005DF804FBFFF7C0FFFFF7BEFF00380240C8
:100300000070004008B501F00FFAFFF7B7FF00F0EA
:100310000BF800F085F800F04DFA00F095FA00F0C7
:10032000D9F902F00DFFFEE72DE9F0418AB0002473
:10033000059406940794089409940194344B1A6B1D
:1003400042F004021A631A6B02F004020192019A4D
:1003500002941A6B42F080021A631A6B02F0800258
:100360000292029A03941A6B42F001021A631A6B0A
:1003700002F001020392039A04941A6B42F0020203
:100380001A631B6B03F002030493049B214E224665
:100390004FF41051304601F0FFF8DFF8808022461C
:1003A0004FF40041404601F0F7F81B4F22464FF44E
:1003B0009C71384601F0F0F84FF400530593012585
:1003C00006950795089405A9304601F001F84FF409
:1003D0000043059306950794089405A9404600F04C
:1003E000F7FF4FF48063059306950794089405A9D9
:1003F000304600F0EDFF4FF49C730593069507948B
:10040000089405A9384600F0E3FF0AB0BDE8F08182
:100410000038024000080240000402400000024090
:1004200000B585B0002300930193029303936A48BB
:100430006A4A02604360836001220261037680F8A9
:100440002030C36266498162C3600E21C16180F8B9
:100450003030426100F076FB002840F08F800023AE
:100460000093012301930523029369465A4800F043
:1004700095FB002840F0858001230093022301931F
:100480006946554800F08AFB00287DD1022300937D
:10049000032301936946504800F080FB002876D181
:1004A000032300930423019369464B4800F076FB35
:1004B00000286FD104230093052301936946464821
:1004C00000F06CFB002868D10523009306230193FC
:1004D0006946414800F062FB002861D10623009381
:1004E0000723019369463C4800F058FB00285AD185
:1004F00007230093082301936946374800F04EFB19
:10050000002853D1082300930923019369463248F8
:1005100000F044FB00284CD1092300930A230193E7
:1005200069462D4800F03AFB002845D10A23009384
:100530000B2301936946284800F030FB00283ED188
:100540000B2300930C2301936946234800F026FBFC
:10055000C0BB0C2300930D23019369461E4800F095
:100560001DFB90BB0D2300930E23019369461A488F
:1005700000F014FB60BB05B05DF804FBFFF77CFEE8
:100580006DE7FFF779FE77E7FFF776FE7EE7FFF787
:1005900073FE85E7FFF770FE8CE7FFF76DFE93E7CC
:1005A000FFF76AFE9AE7FFF767FEA1E7FFF764FE31
:1005B000A8E7FFF761FEAFE7FFF75EFEB6E7FFF7DC
:1005C0005BFEBDE7FFF758FEC3E7FFF755FEC9E73F
:1005D000FFF752FECFE700BF2C00002000200140B3
:1005E0000100000F30B58BB00023059306930793ED
:1005F00008930993026803F1804303F590339A420C
:1006000001D00BB030BD0024019403F58C335A6C3B
:1006100042F480725A645A6C02F480720192019A18
:1006200002941A6B42F004021A631A6B02F004027D
:100630000292029A03941A6B42F001021A631A6B37
:1006400002F001020392039A04941A6B42F0020230
:100650001A631B6B03F002030493049B0F2305939F
:100660000325069505A9094800F0B2FEFF2305936E
:100670000695079405A9064800F0AAFE059506957B
:10068000079405A9034800F0A3FEBAE7000802405A
:10069000000002400004024008B5074C01224FF45C
:1006A0000051204600F078FF01224FF4806120467F
:1006B00000F072FFF1E700BF00080240034B036047
:1006C000034B0B6080231360704700BF740200204F
:1006D0007400002030B58BB00025089509950121E4
:1006E00008A802F065FD0A4B18600DF1040C094CD6
:1006F0000FCCACE80F0094E807008CE8070029460F
:1007000001A802F022FD044B18600BB030BD00BF01
:10071000C8020020FC3A0008CC02002002680E4B00
:100720009A4200D0704700B583B00022019203F5D1
:100730000C33196C41F0040119641B6C03F00403C1
:100740000193019B0A211E2000F0D0FF1E2000F023
:10075000DDFF03B05DF804FB0008004000B587B082
:1007600000230193029303930493059302680E4BB5
:100770009A4202D007B05DF804FB002300930B4BB4
:100780001A6B42F002021A631B6B03F00203009320
:10079000009BC023019302230293059301A90448FF
:1007A00000F016FEE6E700BF0008004000380240F7
:1007B0000004024000B58BB0002308930993019315
:1007C0000293039304930593069307931C481D4AD1
:1007D00002600F22426083601322C26003618023A3
:1007E000836101F0C3F9F8B900230893099308A9BC
:1007F000134801F083FAD0B96023019300220292DA
:100800000392059201A90E4801F00AFA90B9042258
:100810000DEB02010A4801F003FA70B90848FFF72E
:100820009DFF0BB05DF804FBFFF726FDDCE7FFF74B
:1008300023FDE1E7FFF720FDE9E7FFF71DFDEDE709
:10084000D00200200008004008B50A480A4B0360A7
:100850004FF4E133436000238360C36003610C22E3
:1008600042618361C36101F06FFB00B908BDFFF70E
:1008700003FDFBE7180300200014014010B588B009
:100880000023039304930593069307930268194B7F
:100890009A4201D008B010BD0024019403F59233B0
:1008A0005A6C42F020025A645A6C02F02002019203
:1008B000019A02941A6B42F001021A631B6B03F057
:1008C00001030293029B4FF4C0530393022304934A
:1008D000032306930823079303A9074800F078FD34
:1008E00022460521472000F001FF472000F00EFFBF
:1008F000D0E700BF0014014000000240FEE7FEE721
:10090000FEE7FEE7FEE7704708B5024800F0F6FF95
:1009100008BD00BF5C03002008B5024800F0EEFFF0
:1009200008BD00BFD002002008B5024801F0C6FB98
:1009300008BD00BF1803002000B583B0002200925C
:100940000D4B596C41F480415964596C01F480415C
:10095000009100990192196C41F0805119641B6C4F
:1009600003F080530193019B0F216FF0010000F011
:10097000BDFE03B05DF804FB0038024030B589B01D
:100980000546002401941D4B5A6C42F400325A640F
:100990005B6C03F400330193019B02A903A800F0F0
:1009A000F9FC00F0E7FC164AA2FB00239B0C013B7C
:1009B0001448154A026040F2E732C26043600461A5
:1009C0008460846101F0A6F8044610B1204609B0A5
:1009D00030BD0C4800F052FF04460028F6D1192023
:1009E00000F094FE0F2D01D90124EFE700222946E3
:1009F000192000F07BFE054B1D60E7E70038024040
:100A000083DE1B435C0300200044014004000020FF
:100A10004A4B5A6822F440325A605A6841680A4385
:100A20005A600268536823F4807353600268536805
:100A3000016943EA012353600268536823F040735D
:100A400053600268536881680B435360026893687F
:100A500023F40063936002689368C1680B4393605A
:100A6000826A374B9A4257D00268936823F07063CA
:100A7000936002689368816A0B439360026893688D
:100A800023F04053936002689368C16A0B439360FC
:100A90000268936823F00203936002689368017E02
:100AA00043EA4103936090F82030002B3FD0026866
:100AB000536843F4006353600268536823F460434F
:100AC000536001684B68426A013A43EA42334B6023
:100AD0000268D36A23F47003D3620168CB6AC269E7
:100AE000013A43EA0253CB620268936823F400732D
:100AF00093600268936890F8301043EA4123936052
:100B00000268936823F48063936002689368416984
:100B100043EA8123936070470268936823F070630F
:100B200093600268936823F040539360B0E70268D3
:100B3000536823F400635360CAE700BF00230140F9
:100B40000100000F38B310B50446036C43B1236CA9
:100B500013F0100F0BD00120002384F83C3010BD9F
:100B6000FFF740FD0023636484F83C30EFE7236C1B
:100B700023F4885323F0020343F002032364204646
:100B8000FFF746FF00206064236C23F0030343F06B
:100B900001032364E0E701207047000030B482B015
:100BA0000022019290F83C20012A00F0C080034608
:100BB000012280F83C200A68092A40D90468E068CC
:100BC00092B202EB42021E3A4FF0070C0CFA02F20C
:100BD00020EA0202E2601C68E0680A8802EB420236
:100BE0001E3A8D6805FA02F20243E2604A68062A5C
:100BF0003CD81C68606B02EB8202053A4FF01F0C78
:100C00000CFA02F220EA020262631C68606B4A6816
:100C100002EB8202053AB1F800C00CFA02F202437C
:100C200062631868434A904250D01868414A904223
:100C300059D0002083F83C0002B030BC70470468F3
:100C4000206992B202EB42024FF0070C0CFA02F25A
:100C500020EA020222611C6820690A8802EB420233
:100C60008D6805FA02F202432261BFE70C2A16D80A
:100C70001D68286B02EB8202233A1F2404FA02F259
:100C800020EA02022A631D68286B4A6802EB82028E
:100C9000233A0C8804FA02F202432A63C1E71D6872
:100CA000E86A02EB8202413A1F2404FA02F220EAC7
:100CB0000202EA621D68E86A4A6802EB8202413A6F
:100CC0000C8804FA02F20243EA62AAE70A68122ACE
:100CD000ABD1194A506820F400005060506840F4CD
:100CE00080005060A1E70A681448824201D0112AAE
:100CF0009FD1114A506820F480005060506840F441
:100D00000000506009680D4A914292D10C4A126865
:100D10000C49A1FB0212920C02EB820252000192DA
:100D2000019A002A85D0019A013A0192F8E702203F
:100D300082E700BF002001400023014012000010A4
:100D40000800002083DE1B43002800F0E08170B51E
:100D500082B00446036813F0010F3BD09F4B9B68A1
:100D600003F00C03042B2CD09C4B9B6803F00C036A
:100D7000082B21D06368B3F5803F4FD0B3F5A02F87
:100D800052D0964B1A6822F480321A601A6822F404
:100D900080221A606368002B50D000F0EBFC0546FF
:100DA0008E4B1B6813F4003F14D100F0E3FC401B92
:100DB0006428F5D90320B1E1884B5B6813F4800FF8
:100DC000D8D0864B1B6813F4003F03D06368002B18
:100DD00000F09F81236813F0020F54D07F4B9B6873
:100DE00013F00C0F3ED07D4B9B6803F00C03082BD7
:100DF00033D0E368002B68D0794B01221A6000F0F1
:100E0000B9FC0546754B1B6813F0020F54D100F076
:100E1000B1FC401B0228F5D903207FE16F4A13681B
:100E200043F480331360B5E76C4B1A6842F48022B8
:100E30001A601A6842F480321A60ABE700F09AFC3C
:100E40000546664B1B6813F4003FC3D000F092FCCC
:100E5000401B6428F5D9032060E1604B5B6813F404
:100E6000800FC6D15D4B1B6813F0020F03D0E368FF
:100E7000012B40F05081594A136823F0F80321698F
:100E800043EAC1031360236813F0080F42D063697B
:100E90006BB3534B0122C3F8802E00F06BFC054668
:100EA0004E4B5B6F13F0020F34D100F063FC401B1C
:100EB0000228F5D9032031E1484A136823F0F803EA
:100EC000216943EAC1031360DDE7454B00221A6044
:100ED00000F050FC0546414B1B6813F0020FD2D0C6
:100EE00000F048FC401B0228F5D9032016E13C4BDA
:100EF0000022C3F8802E00F03DFC0546374B5B6FA7
:100F000013F0020F06D000F035FC401B0228F5D983
:100F1000032003E1236813F0040F77D02F4B1B6CE1
:100F200013F0805F33D1002301932C4B1A6C42F0F5
:100F300080521A641B6C03F080530193019B0125BE
:100F4000284B1B6813F4807F23D0A368012B34D077
:100F5000052B38D0214B1A6F22F001021A671A6F45
:100F600022F004021A67A368002B3DD000F002FCB7
:100F700006461A4B1B6F13F0020F46D100F0FAFB26
:100F8000801B41F288339842F3D90320C6E0002544
:100F9000D6E7144A136843F48073136000F0EAFB49
:100FA0000646104B1B6813F4807FCED100F0E2FBA5
:100FB000801B0228F5D90320B0E0084A136F43F0E4
:100FC00001031367CFE7054B1A6F42F004021A675B
:100FD0001A6F42F001021A67C5E700BF00380240ED
:100FE000000047420070004000F0C4FB0646524B30
:100FF0001B6F13F0020F08D000F0BCFB801B41F206
:1010000088339842F3D9032088E0EDB9A369002B17
:1010100000F08380484A926802F00C02082A51D0FE
:10102000022B17D0454B00221A6600F0A3FB0446A2
:10103000414B1B6813F0007F42D000F09BFB001B6C
:101040000228F5D9032069E03B4A136C23F0805352
:101050001364DBE7394B00221A6600F08BFB054670
:10106000354B1B6813F0007F06D000F083FB401B5C
:101070000228F5D9032051E0E369226A1343626A2A
:1010800043EA8213A26A5208013A43EA0243E26A3F
:1010900043EA0263284A5360284B01221A6600F093
:1010A00069FB0446244B1B6813F0007F06D100F057
:1010B00061FB001B0228F5D903202FE000202DE062
:1010C00000202BE0012B2BD01B4B5B6803F480012D
:1010D000E269914226D103F03F02216A8A4223D17C
:1010E000616A47F6C0721A40B2EB811F1ED103F449
:1010F0004031A26A5208013AB1EB024F18D103F015
:101100007063E26AB3EB026F14D1002006E00120A5
:101110007047012002E0012000E0002002B070BD15
:101120000120FBE70120F9E70120F7E70120F5E7BF
:101130000120F3E70120F1E70038024000004742B8
:1011400008B5264B9B6803F00C03042B41D0082BF9
:1011500041D1224B5A6802F03F025B6813F4800FC2
:1011600012D01E4B5968C1F388111D480023A1FB02
:101170000001FFF715F8194B5B68C3F30143013316
:101180005B00B0FBF3F027E0144B5868C0F3881005
:101190004FEA401CBCEB000C6EEB0E0E4FEA8E13B8
:1011A00043EA9C634FEA8C11B1EB0C0163EB0E0335
:1011B000DB0043EA5173C90011EB000C43F100035B
:1011C000990200234FEA8C2041EA9C51FEF7E8FF88
:1011D000D1E7034800E0034808BD00BF00380240E3
:1011E00040787D010024F400002800F09B8070B559
:1011F0000D4604464F4B1B6803F007038B4208D291
:10120000CBB24C4A1370136803F007038B4240F0D3
:101210008B80236813F0020F17D013F0040F04D053
:10122000454A936843F4E0539360236813F0080F32
:1012300004D0414A936843F4604393603E4A936804
:1012400023F0F003A1680B439360236813F0010FB0
:1012500032D06368012B21D09A1E012A25D9364A43
:10126000126812F0020F61D033498A6822F003023B
:1012700013438B6000F07EFA06462F4B9B6803F009
:101280000C036268B3EB820F16D000F073FA801B78
:1012900041F288339842F0D9032042E0264A12688E
:1012A00012F4003FE0D101203BE0234A126812F023
:1012B000007FD9D1012034E01E4B1B6803F00703E7
:1012C000AB4207D9EAB21B4B1A701B6803F0070345
:1012D000AB422DD1236813F0040F06D0164A936851
:1012E00023F4E053E1680B439360236813F0080F85
:1012F00007D0114A936823F46043216943EAC1038C
:101300009360FFF71DFF0C4B9B68C3F303130B4A5D
:10131000D35CD8400A4B18600A4B1868FFF72EFBC5
:10132000002070BD012070470120FAE70120F8E796
:101330000120F6E7003C0240003802402C3B000848
:101340000800002004000020014B1868704700BF0F
:101350000800002008B5FFF7F7FF044B9B68C3F3B4
:101360008223034AD35CD84008BD00BF0038024046
:10137000243B000808B5FFF7E7FF044B9B68C3F365
:101380004233034AD35CD84008BD00BF0038024056
:10139000243B00080F2303600B4B9A6802F0030202
:1013A00042609A6802F0F00282609A6802F4E052A9
:1013B000C2609B68DB0803F4E0530361034B1B68C6
:1013C00003F007030B60704700380240003C024006
:1013D00000230F2B00F2D78070B582B065E08568DE
:1013E0004FEA430E032404FA0EF425EA0405CC6800
:1013F00004FA0EF42C438460446824EA02044A6828
:10140000C2F300129A40224342605CE0DC080834D8
:1014100050F8242003F00705AD004FF00F0E0EFA30
:1014200005FE22EA0E0E0A69AA4042EA0E0240F8C0
:1014300024205CE0042200E0002202FA0EF22A439B
:101440000234514D45F82420504A94686FEA0C024A
:1014500024EA0C054E6816F4801F01D04CEA0405FE
:101460004A4CA560E46802EA04054E6816F4001FC1
:1014700001D04CEA0405454CE560646802EA0405C5
:101480004E6816F4003F01D04CEA04053F4C6560FD
:10149000246822404D6815F4803F01D04CEA0402D4
:1014A0003A4C226001330F2B6BD801229A400C6812
:1014B00004EA020C32EA0404F4D14C6804F0030498
:1014C000013C012C8BD94A6802F00302032A09D09F
:1014D000C4685D000322AA4024EA02048A68AA4084
:1014E0002243C2604A6802F00302022A8ED00468D6
:1014F0004FEA430E032202FA0EF224EA02044A687B
:1015000002F0030202FA0EF2224302604A6812F469
:10151000403FC7D0002201921D4A546C44F48044DD
:101520005464526C02F480420192019A9C08A51CFA
:10153000154A52F8255003F0030E4FEA8E0E0F2283
:1015400002FA0EF225EA0205124A90423FF474AF05
:1015500002F5806290420ED002F5806290420CD07B
:1015600002F5806290420AD002F5806290423FF418
:1015700061AF072261E701225FE702225DE70322F4
:101580005BE702B070BD704700380140003C01408D
:1015900000380240000002400AB18161704709042E
:1015A0008161704770B50446866D00F0E3F894F8E9
:1015B0003530DBB2022B06D080236365002384F82C
:1015C0003430012070BD05462268136823F01603ED
:1015D00013602268536923F080035361236CE3B1E5
:1015E0002268136823F0080313602268136823F04D
:1015F0000103136023681B6813F0010F11D000F082
:10160000B9F8431B052BF5D920236365032084F823
:101610003500002384F83430D4E7A36C002BDFD1ED
:10162000E3E7E26D3F239340B360012384F8353054
:10163000002084F83400C5E790F83530DBB2022B87
:1016400003D08023436501207047052380F835309F
:101650000268136823F00103136000207047000044
:10166000002808DB0901C9B200F1604000F56140C3
:1016700080F80013704700F00F000901C9B2014B58
:101680001954704714ED00E000B500F00700C0F1F8
:10169000070CBCF1040F28BF4FF0040C031D062BF0
:1016A0000FD9C31E4FF0FF3E0EFA0CF021EA0001E5
:1016B00099400EFA03FE22EA0E0241EA02005DF8AA
:1016C00004FB0023EEE70000074AD36823F4E0633D
:1016D0001B041B0C000200F4E060034343F0BF63F3
:1016E00043F40033D360704700ED00E010B50446CA
:1016F000054BD868C0F30220FFF7C6FF014620461D
:10170000FFF7AEFF10BD00BF00ED00E0002807DBD3
:1017100000F01F02400901239340024A42F82030A2
:10172000704700BF00E100E008B50B4B1A6842F4B7
:1017300000721A601A6842F480621A601A6842F4F1
:1017400080721A600320FFF7BFFF0F20FFF716F922
:10175000FFF7F2F8002008BD003C0240034A116880
:10176000034B1B780B441360704700BFA403002099
:1017700000000020014B1868704700BFA403002040
:1017800030B4036A23F001030362026A4568836987
:1017900023F073030C681C4322F002028B6813438E
:1017A0000B4A904206D0456084614A6842630362F6
:1017B00030BC704723F00803CA681A4322F00403C0
:1017C00025F440754A692A438D691543EBE700BF4C
:1017D0000000014030B4036A23F480730362036A9B
:1017E0004468C26922F073020D68154323F4007344
:1017F0008A6843EA02230D4A904206D04460C561DC
:101800004A68C263036230BC704723F40063CA684D
:1018100043EA022323F4806324F440544A6944EAEF
:1018200002148A6944EA0214E8E700BF000001409C
:1018300030B4036A23F480530362036A4468C269C4
:1018400022F4E6420D6842EA052223F400538D6833
:1018500043EA0533074DA84206D04460C2614A6896
:101860000264036230BC704724F480444D6944EA4A
:101870008514F2E7000001407047000090F83D3009
:10188000DBB2012B2FD1022380F83D300268D368F0
:1018900043F00103D3600368154A934218D0B3F1B3
:1018A000804F15D0A2F57C42934211D002F58062A0
:1018B00093420DD002F58062934209D002F59A322C
:1018C000934205D01A6842F001021A600020704766
:1018D0009A6802F00702062A07D01A6842F001024D
:1018E0001A6000207047012070470020704700BF39
:1018F00000000140704770477047704710B50446BC
:1019000003681A6912F0020F11D0DA6812F0020FA0
:101910000DD06FF002021A610123037703689B69FF
:1019200013F0030F70D0FFF7E6FF0023237723683F
:101930001A6912F0040F12D0DA6812F0040F0ED0F8
:101940006FF004021A610223237723689B6913F462
:10195000407F5FD02046FFF7CEFF00232377236828
:101960001A6912F0080F12D0DA6812F0080F0ED0C0
:101970006FF008021A61042323772368DB6913F0F0
:10198000030F4ED02046FFF7B6FF002323772368CE
:101990001A6912F0100F12D0DA6812F0100F0ED080
:1019A0006FF010021A61082323772368DB6913F4B0
:1019B000407F3DD02046FFF79EFF0023237723681A
:1019C0001A6912F0010F03D0DA6812F0010F36D154
:1019D00023681A6912F0800F03D0DA6812F0800FC2
:1019E00034D123681A6912F0400F03D0DA6812F07C
:1019F000400F32D123681A6912F0200F03D0DA6841
:101A000012F0200F30D110BDFFF774FF2046FFF712
:101A100073FF8AE72046FFF76DFF2046FFF76CFF54
:101A20009BE72046FFF766FF2046FFF765FFACE720
:101A30002046FFF75FFF2046FFF75EFFBDE76FF030
:101A400001021A612046FEF70BFCC1E76FF080022D
:101A50001A61204600F091F9C3E76FF040021A6165
:101A60002046FFF74AFFC5E76FF020021A612046C3
:101A700000F082F9C7E700000368254A90420ED0C3
:101A8000B0F1804F0BD0A2F57C42904207D002F516
:101A90008062904203D002F58062904203D123F02D
:101AA00070034A6813431A4A90421AD0B0F1804F2B
:101AB00017D0A2F57C42904213D002F5806290428A
:101AC0000FD002F5806290420BD002F59A3290421C
:101AD00007D002F58062904203D002F58062904206
:101AE00003D123F44073CA68134323F080034A6987
:101AF000134303608B68C3620B688362044B984294
:101B000002D00123436170470B690363F9E700BF0B
:101B10000000014040B310B5044690F83D30F3B1E9
:101B2000022384F83D30214651F8040BFFF7A4FF4F
:101B3000012384F8463084F83E3084F83F3084F83E
:101B4000403084F8413084F8423084F8433084F8DF
:101B5000443084F8453084F83D30002010BD80F8D2
:101B60003C30FFF789FEDBE70120704740B310B53A
:101B7000044690F83D30F3B1022384F83D3021460D
:101B800051F8040BFFF778FF012384F8463084F8FE
:101B90003E3084F83F3084F8403084F8413084F897
:101BA000423084F8433084F8443084F8453084F877
:101BB0003D30002010BD80F83C30FEF7AFFDDBE784
:101BC0000120704730B4036A23F010030362036AF4
:101BD0004468826922F4E6420D6842EA052223F055
:101BE00020038D6843EA05130C4DA84206D04460DB
:101BF00082614A688263036230BC704723F08003CD
:101C0000CD6843EA051323F0400324F440644D6992
:101C100044EA85048D6944EA8504E8E70000014050
:101C200038B590F83C30012B66D004460D460123B0
:101C300080F83C300C2A5AD8DFE802F0075959598D
:101C40001B5959593059595944000068FFF798FDFC
:101C50002268936943F0080393612268936923F033
:101C6000040393612268936929690B4393610020FF
:101C70003EE00068FFF7A6FF2268936943F4006323
:101C800093612268936923F4806393612268936966
:101C9000296943EA01239361002029E00068FFF7E6
:101CA00099FD2268D36943F00803D3612268D369A0
:101CB00023F00403D3612268D36929690B43D361FC
:101CC000002015E00068FFF7B3FD2268D36943F4F4
:101CD0000063D3612268D36923F48063D3612268EF
:101CE000D369296943EA0123D361002000E0012080
:101CF000002384F83C3038BD0220FCE790F83C20FB
:101D0000012A35D010B40346012280F83C2002227B
:101D100080F83D2002685068946820F0700C0868D4
:101D200040EA0C0050601A681248824212D0B2F1A8
:101D3000804F0FD0A0F57C4082420BD000F5806030
:101D4000824207D000F58060824203D000F59A30CD
:101D5000824204D124F08004496821439160012229
:101D600083F83D20002083F83C005DF8044B704769
:101D7000022070470000014070477047026802F17E
:101D80000C0353E8003F23F490730C3242E8003117
:101D90000029F3D1026802F1140353E8003F23F055
:101DA0000103143242E800310029F3D1036B012B07
:101DB00005D0202380F83E3000230363704702687B
:101DC00002F10C0353E8003F23F010030C3242E809
:101DD00000310029F3D1ECE790F83D30DBB2212B44
:101DE00001D0022070478368B3F5805F17D0036A83
:101DF0005A1C02621A7803685A60C38C9BB2013B7A
:101E00009BB2C3844BB90268D36823F08003D360CC
:101E10000268D36843F04003D36000207047036931
:101E2000002BE4D1036A1B880268C3F308035360E4
:101E3000036A02330362E0E710B5044602681369DF
:101E400023F44053C1680B431361836802691A434A
:101E500043691A43C3691A430168CB6823F41643E4
:101E600023F00C031343CB600268536923F44073DF
:101E700081690B4353610368314A934206D002F5EE
:101E80008062934202D0FFF765FA01E0FFF772FA31
:101E9000E369B3F5004F29D00021031849411B180D
:101EA00041F10001C90041EA5371DB001818636871
:101EB0004FEA83024FEA937341F10001FEF770F994
:101EC000204AA2FB00314909642303FB11031B01D3
:101ED0003233A2FB03235B0903F0F00202EB011291
:101EE00003F00F03216813448B6010BD0023021818
:101EF00043EB0301121841F10001C90041EA52719C
:101F0000D200101841F10001626892185B41FEF79F
:101F100047F90C4AA2FB00314909642303FB110372
:101F2000DB003233A2FB03235B095A0002F4F87290
:101F300002EB011203F00703216813448B60D4E71E
:101F4000001001401F85EB5158B310B5044690F8BE
:101F50003D300BB3242384F83D302268D36823F44A
:101F60000053D3602046FFF767FF2268136923F40C
:101F7000904313612268536923F02A035361226856
:101F8000D36843F40053D36000202064202384F8F6
:101F90003D3084F83E3010BD80F83C30FEF76EFCDA
:101FA000D8E701207047704708B50168CA6822F079
:101FB0004002CA60202280F83D20FFF7F4FF002095
:101FC00008BD7047704708B5806B0023C385C38484
:101FD000FFF7F8FF08BD704790F83E30DBB2222BC8
:101FE00067D18368B3F5805F4DD0826AB3F5805FB7
:101FF00004D0002B54D10369002B51D103685B68D6
:102000001370836A01338362C38D9BB2013B9BB221
:10201000C385002B4FD100B583B00268D36823F08D
:102020002003D3600268D36823F48073D36002680E
:10203000536923F001035361202380F83E30036B82
:10204000012B33D100230363026802F10C0353E830
:10205000003F23F010030C3242E800310029F3D195
:1020600003681A6812F0100F06D0002201921A6855
:1020700001925B680193019B818DFFF7ACFF00200B
:1020800003B05DF804FB0269002AAED1826A0368DE
:102090005B68C3F308031380836A02338362B3E788
:1020A00003685B6803F07F031370AAE7FFF789FFFB
:1020B000E5E70220704700207047000010B582B0AD
:1020C000044602681368D068516913F00F0F09D1F4
:1020D00013F0200F0CD010F0200F09D02046FFF78E
:1020E0007BFF16E011F0010115D110F4907F12D1A1
:1020F000216B012979D013F0800F03D010F0800FED
:1021000040F0108113F0400F03D010F0400F40F06A
:102110000D8102B010BD13F0010F06D010F4807FC6
:1021200003D0226C42F00102226413F0040F04D0A9
:1021300019B1226C42F00202226413F0020F04D0A3
:1021400019B1226C42F00402226413F0080F07D088
:1021500010F0200F00D119B1226C42F00802226465
:10216000226C002AD5D013F0200F02D010F0200FDF
:1021700029D123685B6903F04003226C12F0080F39
:1021800000D163B32046FFF7F9FD23685B6913F0C4
:10219000400F20D0226802F1140353E8003F23F0DF
:1021A0004003143242E800310029F3D1A36B73B12C
:1021B000604A1A65A06BFFF73FFA0028A9D0A06B10
:1021C000036D9847A5E72046FFF706FFD1E72046B5
:1021D000FFF7F8FE9DE72046FFF7F4FE99E720465B
:1021E000FFF7F0FE0023236493E713F0100F82D073
:1021F00010F0100F3FF47FAF002301931368019399
:1022000053680193019B536913F0400F50D0A26BA8
:1022100013685B689BB2002B3FF47BAFA18D9942A2
:102220007FF677AFE385D369B3F5807F37D0226837
:1022300002F10C0353E8003F23F480730C3242E8B0
:1022400000310029F3D1226802F1140353E8003F62
:1022500023F00103143242E800310029F3D122684F
:1022600002F1140353E8003F23F04003143242E824
:1022700000310029F3D1202384F83E30002323636A
:10228000226802F10C0353E8003F23F010030C32E4
:1022900042E800310029F3D1A06BFFF783F9A18D4B
:1022A000E38D9BB2C91A89B22046FFF794FE30E74E
:1022B000A18DE38D9BB2C91A89B2E38D9BB2002B2D
:1022C0003FF427AF00293FF424AF226802F10C034A
:1022D00053E8003F23F490730C3242E800300028AA
:1022E000F3D1226802F1140353E8003F23F0010305
:1022F000143242E800300028F3D1202384F83E3025
:1023000000232363226802F10C0353E8003F23F00B
:1023100010030C3242E800300028F3D12046FFF7CA
:102320005AFEF6E62046FFF757FDF2E62046FFF795
:102330003BFEEEE6C71F0008034AD2F8883043F49C
:102340007003C2F88830704700ED00E000F1080328
:1023500043604FF0FF328260C3600361002303607B
:10236000704700230361704743684B609A688A6036
:10237000516099600861036801330360704730B4AD
:102380000D68B5F1FF3F11D000F108031C465B68F2
:102390001A68AA42FAD963684B6099608C606160E0
:1023A000086103680133036030BC70470469F2E7D9
:1023B0000369416882688A60416851605A68824254
:1023C00006D0002202611A68013A1A601868704744
:1023D00082685A60F5E710B5044601F09BF8A26BDD
:1023E000E36B9A4204D0002401F0B6F8204610BDF9
:1023F0000124F9E770B504461546866B026C5AB99C
:1024000003681BB100200136A66370BD806800F030
:1024100039FE0023A360F6E76DB9406801F0F6F9D4
:102420006368226C13446360A268934219D32368E3
:1024300063602846E7E7C06801F0E8F9E368226CCA
:1024400051429B1AE3602268934202D2A3680B4474
:10245000E360022D01D00020D5E726B1013E002027
:10246000D1E72846CFE70020CDE738B5054601F093
:1024700051F895F8454064B201E0013C64B2002C8B
:102480000ADD6B6A43B105F1240000F051FD00281C
:10249000F3D000F0E1FDF0E7FF2385F8453001F0CF
:1024A0005BF801F037F895F8444064B201E0013C74
:1024B00064B2002C0ADD2B6943B105F1100000F075
:1024C00037FD0028F3D000F0C7FDF0E7FF2385F8C3
:1024D000443001F041F838BD38B5E0B10D4604464E
:1024E00001F018F82368E26B216C01FB0230A06058
:1024F0000020A0636360013A02FB0133E360FF2325
:1025000084F8443084F84530FDB9236963B901F09B
:1025100023F8012038BD4FF0500383F31188BFF337
:102520006F8FBFF34F8FFEE704F1100000F000FD46
:102530000028ECD04FF0E0234FF08052C3F8042D78
:10254000BFF34F8FBFF36F8FE1E704F11000FFF788
:10255000FDFE04F12400FFF7F9FED8E710B50346AD
:1025600002980C4631B90060C36304640121FFF78F
:10257000B3FF10BD0260F7E740B94FF0500383F39B
:102580001188BFF36F8FBFF34F8FFEE710B584B094
:102590001C46844653B192B189B94FF0500383F37E
:1025A0001188BFF36F8FBFF34F8FFEE74FF05003DB
:1025B00083F31188BFF36F8FBFF34F8FFEE76AB1CC
:1025C00048230393039B482B13D04FF0500383F30E
:1025D0001188BFF36F8FBFF34F8FFEE70029EFD055
:1025E0004FF0500383F31188BFF36F8FBFF34F8F0A
:1025F000FEE7039B012384F8463000949DF81830D1
:102600006046FFF7ABFF204604B010BD40B94FF065
:10261000500383F31188BFF36F8FBFF34F8FFEE733
:10262000F0B583B00D461446064601FB00F0483075
:1026300000F046FE074650B1002380F84630009077
:10264000234600F1480229463046FFF787FF384607
:1026500003B0F0BDF0B585B0019288B10F461D46BC
:102660000446B1B1022D20D1E36B012B1DD04FF0F8
:10267000500383F31188BFF36F8FBFF34F8FFEE7D3
:102680004FF0500383F31188BFF36F8FBFF34F8F69
:10269000FEE7036C002BE5D04FF0500383F3118865
:1026A000BFF36F8FBFF34F8FFEE700F0DBFC0646F2
:1026B00058B9019B002B48D04FF0500383F3118889
:1026C000BFF36F8FBFF34F8FFEE700263DE02A4632
:1026D00039462046FFF78EFE636A7BB948B14FF05A
:1026E000E0234FF08052C3F8042DBFF34F8FBFF3A8
:1026F0006F8F00F031FF012005B0F0BD04F1240020
:1027000000F016FC0028F4D04FF0E0234FF0805288
:10271000C3F8042DBFF34F8FBFF36F8FE9E700F0CD
:102720001BFF0020E8E702A800F048FC012619E0A2
:10273000002384F8443021E0002384F8453023E06E
:102740002046FFF792FE00F013FB00F0E3FEA26BC1
:10275000E36B9A42BBD3022DB9D0019B002BDED094
:10276000002EE0D000F0F8FE00F06EFA00F0D2FE8D
:1027700094F8442052B2B2F1FF3FD9D094F84520EA
:1027800052B2B2F1FF3FD7D000F0E6FE01A902A895
:1027900000F020FCD8B92046FFF71DFE0028CFD05E
:1027A000019904F1100000F0ABFB2046FFF75DFE3D
:1027B00000F0DEFA0028C8D14FF0E0234FF080523D
:1027C000C3F8042DBFF34F8FBFF36F8FBDE72046D3
:1027D000FFF74BFE00F0CCFA00208DE7084B1B689A
:1027E0001B6823B9074B4FF0FF321A607047044B48
:1027F0001B68DB68DB685A68024B1A60704700BFD1
:1028000018040020B00300202DE9F0470746984641
:10281000089DDDF824900A9C266B02F18042013A63
:1028200006EB820626F00706C1B308464FF0000CFF
:10283000BCF10F0F09D810F80C2004EB0C0383F83F
:10284000342012B10CF1010CF2E7002384F843307C
:10285000062D00D90625E56265644FF0000AC4F82C
:1028600048A0201DFFF77DFD04F11800FFF779FD5A
:102870002461C5F10705A5616462C4F84CA084F821
:1028800050A042463946304600F018FE2060B9F1AB
:10289000000F01D0C9F80040BDE8F087002384F89C
:1028A0003430D5E738B5002407E004EB8402930008
:1028B0000E481844FFF74AFD0134062CF5D90C4D9B
:1028C0002846FFF743FD0B4C2046FFF73FFD0A4823
:1028D000FFF73CFD0948FFF739FD0948FFF736FDD2
:1028E000084B1D60084B1C6038BD00BF440400202D
:1028F000300400201C04002000040020EC03002011
:10290000D4030020180400201404002010B504464D
:1029100000F000FE214A136801331360204B1B684E
:102920005BB1204B1B686BB91D4B1B68DA6AE36A0D
:102930009A4207D81A4B1C6004E0194B1C601368BC
:10294000012B28D0184A136801331360E06A012371
:102950008340164A11680B43136000EB8000211D71
:10296000134B03EB8000FFF7FFFC00F0F5FD0D4B70
:102970001B687BB10A4B1B68DA6AE36A9A4209D288
:102980004FF0E0234FF08052C3F8042DBFF34F8F78
:10299000BFF36F8F10BDFFF785FFD3E7D003002093
:1029A000D0040020C4030020B4030020C80300208A
:1029B0004404002010B5044690F8513063B1012B57
:1029C00011D0022B0ED04FF0500383F31188BFF3C8
:1029D0006F8FBFF34F8FFEE7006B00F0F3FC2046D4
:1029E00000F0F0FC10BD00F0EDFCFBE70F4B1B68A6
:1029F000D3B110B500F08EFD0D4BDB68DC68201DF7
:102A0000FFF7D6FC0B4A1368013B1360074A1368B3
:102A1000013B136000F0A0FD2046FFF7CBFF034B06
:102A20001B68002BE6D110BD704700BFE8030020F3
:102A3000EC030020D003002008B5FFF7D7FF074BB9
:102A40001B68012BF9D94FF0E0234FF08052C3F8F7
:102A5000042DBFF34F8FBFF36F8FEEE744040020C8
:102A600070B504460D461D4B1E681D4B186804309A
:102A7000FFF79EFC48B91A4B1B68DB6A01229A409B
:102A800018490B6823EA02030B60B4F1FF3F0DD035
:102A90003444134B1B685C60A64210D9124B186873
:102AA0000F4B19680431FFF76AFC70BD002DEFD0A1
:102AB0000B4B196804310D48FFF756FCF5E70C4B3A
:102AC0001868074B19680431FFF759FC094B1B685C
:102AD000A342EAD9074B1C60E7E700BFCC03002004
:102AE000D0040020C803002014040020D4030020D8
:102AF00018040020B003002030B587B00B9C7CB1D7
:102B00000C9DB5B154250495049D542D1AD04FF059
:102B1000500383F31188BFF36F8FBFF34F8FFEE72E
:102B20004FF0500383F31188BFF36F8FBFF34F8FC4
:102B3000FEE74FF0500383F31188BFF36F8FBFF3AD
:102B40004F8FFEE7049D0C9D2C63022485F85140B5
:102B500000240394029505AC01940A9C0094FFF7AD
:102B600053FE0C98FFF7D2FE059807B030BD2DE953
:102B7000F04385B00746884614461E46900000F094
:102B80009FFB08B38146542000F09AFB0546A8B18C
:102B9000C0F83090002380F85130039302900D9BD1
:102BA00001930C9B00933346224641463846FFF77B
:102BB0002BFE2846FFF7AAFE012007E0484600F05A
:102BC00001FC4FF0FF3001E04FF0FF3005B0BDE8F1
:102BD000F083000010B588B000240594069407AA7D
:102BE00006A905A8FDF76AFD059B0293069B0193C4
:102BF00000942346079A0E490E48FFF77DFF0E4BBF
:102C0000186090B14FF0500383F31188BFF36F8FBA
:102C1000BFF34F8F094B4FF0FF321A60084B012270
:102C20001A60084B1C6000F00FFD08B010BD00BF1B
:102C30003C3B0008392A0008AC030020B003002008
:102C4000C4030020CC030020024A13680133136040
:102C5000704700BFA8030020F8B53A4B1B68002B53
:102C600069D1394B1D6801351D60C5B9374B1B68EB
:102C70001B6843B14FF0500383F31188BFF36F8F8C
:102C8000BFF34F8FFEE7314A1168314B186810606F
:102C90001960304A136801331360FFF79FFD2E4B14
:102CA0001B68AB423DD900272C4B1B68DB6A03EB4A
:102CB00083039A002A4B9B58012B00D90127294BEB
:102CC0001B68002B3CD001273AE001271F4B1B68F3
:102CD0001B6843B31D4B1B68DB68DC6863689D425F
:102CE00026D3261D3046FFF763FBA36A1BB104F110
:102CF0001800FFF75DFBE36A01229A401A49086851
:102D000002430A6003EB83039A00314614481044DF
:102D1000FFF72AFBE26A114B1B68DB6A9A42D4D2A6
:102D2000D4E70027D2E70C4B4FF0FF321A60BBE725
:102D3000094A1360B8E70D4A13680133136000278E
:102D40003846F8BDA8030020CC030020180400205A
:102D500014040020B8030020B0030020D004002099
:102D600044040020BC030020C8030020C00300204E
:102D700038B5354B1B6843B94FF0500383F31188C6
:102D8000BFF36F8FBFF34F8FFEE700F0C3FB2E4BF7
:102D90001A68013A1A601B68002B4FD12B4B1B6835
:102DA0000BB900244BE00024294B1B681BB3284BB4
:102DB000DB68DC6804F11800FFF7FAFA251D2846E5
:102DC000FFF7F6FAE06A01238340224A11680B43B9
:102DD000136000EB800029461F4B03EB8000FFF7D8
:102DE000C3FAE26A1D4B1B68DB6A9A42DCD31C4BB8
:102DF00001221A60D8E70CB1FFF7F0FC194B1C68F0
:102E000084B9174B1C68D4B14FF0E0234FF08052C7
:102E1000C3F8042DBFF34F8FBFF36F8F01240EE073
:102E2000013C07D0FFF718FF0028F9D00C4B012216
:102E30001A60F5E70B4B00221A60E2E7002400F06D
:102E40008BFB204638BD00BFA8030020D003002024
:102E500000040020C803002044040020D004002007
:102E6000BC030020C0030020204B1B681BB1204B7B
:102E700001221A6070471E4B00221A601D4B1B680E
:102E8000B3FA83F3DBB2C3F11F0303EB83018A00C0
:102E900019498A5842B94FF0500383F31188BFF3A0
:102EA0006F8FBFF34F8FFEE7134803EB83018A0058
:102EB000024451684968516003EB830C4FEA8C026D
:102EC00008320244914209D003EB83039A000A4B73
:102ED00013445B68DA68094B1A60704748686246B9
:102EE0009100054A0A445060EEE700BFA8030020A5
:102EF000BC030020C803002044040020D0040020AC
:102F000058B110B50C46094A11681831FFF737FA65
:102F100001212046FFF7A4FD10BD4FF0500383F3BD
:102F20001188BFF36F8FBFF34F8FFEE7D0040020EF
:102F300038B5C368DC6824B304F118052846FFF7E8
:102F400037FA184B1B682BBB251D2846FFF730FAB4
:102F5000E06A01238340144A11680B43136000EBBD
:102F600080002946114B03EB8000FFF7FDF9E26A70
:102F70000F4B1B68DB6A9A4211D901200D4B186078
:102F800038BD4FF0500383F31188BFF36F8FBFF349
:102F90004F8FFEE729460848FFF7E6F9E7E70020EC
:102FA000EEE700BFA8030020C8030020440400206F
:102FB000D0040020BC03002000040020034B1B6849
:102FC0000360034B1B684360704700BFB8030020D9
:102FD000CC030020F8B5C8B10C460546F9B100F0A5
:102FE00099FA1B4B19686B68C81A2268B2F1FF3F47
:102FF00026D0184E36682F68B74201D08B4224D9AC
:10300000824215D80023236001241AE04FF05003B8
:1030100083F31188BFF36F8FBFF34F8FFEE74FF03D
:10302000500383F31188BFF36F8FBFF34F8FFEE719
:103030005B1A134423602846FFF7C0FF002400E01A
:10304000002400F089FA2046F8BD0124F9E700BF0A
:10305000CC030020B8030020014B01221A60704706
:10306000BC030020054B1B6833B1054B1B680BB13B
:10307000002070470220704701207047C4030020E1
:10308000A803002000284BD038B50446264B1B6807
:10309000834208D04FF0500383F31188BFF36F8F42
:1030A000BFF34F8FFEE7836C43B94FF0500383F3B8
:1030B0001188BFF36F8FBFF34F8FFEE7013B83642F
:1030C000C16A426C91422DD00BB1002038BD051D64
:1030D0002846FFF76DF968B9E36A03EB83029200B3
:1030E00012498A5832B901229A4011490B6823EAE1
:1030F00002030B60606CE062C0F10703A36101246E
:1031000004FA00F30A4A11680B43136000EB8000D5
:103110002946064B03EB8000FFF726F92046D5E74A
:10312000002070470020D1E7D00400204404002094
:10313000C8030020842801D0033070470020704766
:1031400008B5FFF747FD002008BD2DE9F04387B023
:103150000E464469C4B18569B5B14768D0F80080AE
:10316000D0F81090B0F90800FFF7E4FF0295019441
:10317000009033464A4641463846FFF7BDFC05906D
:10318000059807B0BDE8F083446805680769B0F9A1
:103190000800FFF7CFFF05AB019300903346BAB2AA
:1031A00029462046FFF7E3FC0128E9D00020E8E7A4
:1031B00010B582B044687CB1012903D000242046B8
:1031C00002B010BD032300932346002211460120C4
:1031D000FFF7D2F90446F2E70129F0D103220021DA
:1031E0000120FFF713FA04460028E8D000231A460E
:1031F0001946FFF72FFAE2E7124A12F0070F1ED026
:10320000D11D21F00701C1F5705313440A460E4841
:103210000260002141601344083B23F007030B4880
:10322000036059601960991A51601360084B196066
:10323000084B1960084B4FF000421A6070474FF47A
:103240007053E4E7F4040020EC040020E8040020BC
:10325000E0040020E4040020D4040020164B1A46A9
:103260001B688342FBD3516802EB010C844509D0F3
:10327000416800EB010C634509D00360904219D00E
:10328000106070474068014451601046F0E710B488
:103290000A4C2468A3420BD05B6819444160136850
:1032A0001B680360904200D010605DF8044B7047CB
:1032B0000460F7E7704700BFEC040020E80400203A
:1032C00038B50446FFF7C0FC384B1B68B3B1384B28
:1032D0001B681C4250D1002C50D004F1080214F09D
:1032E000070F02D022F007020832002A55D0314BD6
:1032F0001B68934253D330490C6804E0FFF77CFF0E
:10330000E5E721461C466368934202D22368002BFE
:10331000F7D1264B1B68A34243D00D6808352368BC
:103320000B6063689B1A102B10D9A01810F0070FC0
:1033300008D04FF0500383F31188BFF36F8FBFF3B2
:103340004F8FFEE743606260FFF788FF62681949AC
:103350000B689B1A0B60194909688B4201D2174907
:103360000B60134B1B681343636000232360144AF4
:1033700013680133136002E0002500E00025FFF729
:10338000F7FC15F0070F0ED04FF0500383F31188B0
:10339000BFF36F8FBFF34F8FFEE70025EFE70025E8
:1033A000EDE70025EBE7284638BD00BFE804002024
:1033B000D4040020E4040020EC040020E0040020F9
:1033C000DC040020002834D038B50446A0F10805FC
:1033D00050F8043C174A1268134208D14FF05003CA
:1033E00083F31188BFF36F8FBFF34F8FFEE750F861
:1033F000081C41B14FF0500383F31188BFF36F8F66
:10340000BFF34F8FFEE723EA020340F8043CFFF7C7
:103410001BFC54F8041C084A13680B44136028462C
:10342000FFF71CFF054A136801331360FFF7A0FC88
:1034300038BD7047D4040020E4040020D8040020E4
:1034400082B0002301930D4B1B68B3F1FF3F08D0FE
:103450004FF0500383F31188BFF36F8FBFF34F8F8B
:10346000FEE74FF0500383F31188BFF36F8FBFF374
:103470004F8F019B002BFCD002B070470C00002046
:1034800008480068006880F308884FF0000080F367
:10349000148862B661B6BFF34F8FBFF36F8F00DF42
:1034A00000BF000008ED00E0DFF80C00016841F407
:1034B000700101607047000088ED00E04FF08073FC
:1034C00040F8043C21F0010140F8081C054B40F88D
:1034D0000C3C40F8202C6FF0020340F8243C4438A8
:1034E000704700BF413400080000000000000000E9
:1034F000074B19680868B0E8F04F80F30988BFF3FC
:103500006F8F4FF0000080F311887047AFF3008099
:10351000D00400204FF0500383F31188BFF36F8F66
:10352000BFF34F8F0B4A136801331360012B00D098
:1035300070474FF0E023D3F8043D13F0FF0FF7D0AE
:103540004FF0500383F31188BFF36F8FBFF34F8F9A
:10355000FEE700BF0C000020094B1B6843B94FF089
:10356000500383F31188BFF36F8FBFF34F8FFEE7D4
:10357000013B034A13600BB983F31188704700BF06
:103580000C0000200000000000000000000000000F
:10359000EFF30980BFF36F8F154B1A681EF0100F01
:1035A00008BF20ED108A20E9F04F10602DE90900D6
:1035B0004FF0500080F31188BFF34F8FBFF36F8F30
:1035C000FFF752FC4FF0000080F3118809BC196826
:1035D0000868B0E8F04F1EF0100F08BFB0EC108A7A
:1035E00080F30988BFF36F8F704700BFAFF300808F
:1035F000D004002008B54FF0500383F31188BFF3C7
:103600006F8FBFF34F8FFFF727FB28B14FF0E023F9
:103610004FF08052C3F8042D002383F3118808BDB6
:103620004FF0E022002313619361054B1B680549AD
:10363000A1FB03139B09013B5361072313617047EF
:1036400008000020D34D62104FF0E023D3F8002D86
:103650003D4B9A421CD04FF0E023D3F8002D3B4B5A
:103660009A421ED030B583B0394B1A78D2B201924B
:10367000FF221A701B78DBB28DF803309DF80330FF
:1036800003F05003334A1370334B07221A601BE0D8
:103690004FF0500383F31188BFF36F8FBFF34F8F49
:1036A000FEE74FF0500383F31188BFF36F8FBFF332
:1036B0004F8FFEE7284A1368013B13609DF80330E3
:1036C0005B00DBB28DF803309DF8033013F0800F00
:1036D000F0D1214B1B68032B08D04FF0500383F32C
:1036E0001188BFF36F8FBFF34F8FFEE71B021A4A9B
:1036F000136003F4E0631360019BDBB2144A1370A0
:103700004FF0E024D4F8203D43F47003C4F8203D8A
:10371000D4F8203D43F07043C4F8203DFFF780FF0C
:1037200000250E4B1D60FFF7BFFED4F8343F43F079
:103730004043C4F8343FFFF7A3FEFFF795FBFFF7C4
:103740007FFE284603B030BD71C20F4170C20F41E9
:1037500000E400E0F8400020F44000200C000020CD
:10376000DFF834D00D480E490E4A002302E0D45849
:10377000C4500433C4188C42F9D30B4A0B4C0023B9
:1037800001E013600432A242FBD3FEF7D5FD00F046
:1037900019F8FCF7B7FD7047000002200000002078
:1037A00010000020543B000810000020FC400020C6
:1037B000FEE702440346934200D1704703F8011B21
:1037C000F9E7000070B50D4D0D4C641BA4100026E8
:1037D000A64209D10B4D0C4C00F084F9641BA410D7
:1037E0000026A64205D170BD55F8043B9847013626
:1037F000EEE755F8043B98470136F2E74C3B0008EA
:103800004C3B00084C3B0008503B00080A449142E6
:1038100000F1FF3300D1704710B511F8014B03F8E8
:10382000014F9142F9D110BD2DE9F047089D0C469A
:10383000002B4ED194468C458646B2FA82F262D96C
:103840004AB1C2F12003914020FA03F30CFA02FCC2
:10385000194300FA02FE4FEA1C471FFA8CF6B1FB2F
:10386000F7F44FEA1E4307FB141143EA014304FB3C
:1038700006F199420AD91CEB030304F1FF3080F0F2
:103880001281994240F20F81023C6344591A1FFA97
:103890008EF3B1FBF7F007FB101143EA014300FB85
:1038A00006F69E420AD91CEB030300F1FF3180F0BB
:1038B000FC809E4240F2F980634402389B1B40EA40
:1038C000044000211DB1D3400022C5E90032BDE80B
:1038D000F0878B4205D90DB1C5E9000100210846EA
:1038E000F5E7B3FA83F1002946D1A34202D390420F
:1038F000C0F0F080861A64EB03030120002DE6D0AF
:10390000C5E90063E3E7002A40F09080A1EB0C04D6
:103910004FEA1C481FFA8CF70121B4FBF8F64FEA76
:103920001E4308FB164443EA044307FB06F0984293
:1039300008D91CEB030306F1FF3402D2984200F2CF
:10394000CD8026461C1A1FFA8EF3B4FBF8F008FB54
:10395000104443EA044300FB07F79F4208D91CEBDD
:10396000030300F1FF3402D29F4200F2B0802046F0
:10397000DB1B40EA0640A5E7C1F120068B4022FA96
:1039800006F71F4320FA06FC04FA01F343EA0C038E
:10399000F44000FA01F8380C4FEA1349B4FBF0FE8A
:1039A0001FFA87FC00FB1E4449EA04440EFB0CF995
:1039B000A14502FA01F20AD93C190EF1FF3A80F052
:1039C0008480A14540F28180AEF1020E3C44A4EB1C
:1039D00009041FFA83F9B4FBF0F300FB134449EA2E
:1039E000044403FB0CFCA44507D93C1903F1FF3048
:1039F00067D2A44565D9023B3C4443EA0E40A0FB94
:103A00000293A4EB0C049C42CE469C4651D34ED06C
:103A100055B1B8EB0E0364EB0C0404FA06F6CB4088
:103A20001E43CC40C5E90064002150E7C2F12003E9
:103A300020FA03F10CFA02FC24FA03F394400C433D
:103A40004FEA1C4800FA02FE1FFA8CF7B3FBF8F0AD
:103A500008FB1031230C43EA014300FB07F19942B4
:103A600008D91CEB030300F1FF362CD299422AD966
:103A7000023863445B1AA4B2B3FBF8F108FB1133BC
:103A800044EA034401FB07F3A34208D91CEB0404F6
:103A900001F1FF3613D2A34211D902396444E41A6A
:103AA00041EA004139E70446F0E6084606E7C84522
:103AB000AED2B9EB020E63EB070C0138A8E7314632
:103AC000EDE7034699E73046D4E7D6467FE76344FF
:103AD00002384DE70646234608460FE7023E634498
:103AE00030E700BFF8B500BFF8BC08BC9E46704781
:0C3AF000F8B500BFF8BC08BC9E4670474B
:103AFC00183B0008990600080000000000000000B8
:103B0C008000000000000000000000006465666199
:103B1C00756C745461736B000000000001020304A7
:103B2C000000000000000000010203040607080961
:083B3C0049444C450000000063
:083B4400E4FCFF7F010000001A
:043B4C003D0200082E
:043B50001502000852
:103B540001000000100000000024F400AAAAAAAA90
:040000050800376157
:00000001FF
