:020000040800F2
:1000000000000220D54500085D0D00085F0D0008C6
:10001000610D0008630D0008650D00080000000078
:100020000000000000000000000000003143000854
:10003000670D000800000000D143000835440008A7
:1000400025460008254600082546000825460008E4
:1000500025460008254600082546000825460008D4
:1000600025460008254600082546000825460008C4
:1000700025460008254600082546000825460008B4
:100080002546000825460008254600080000000017
:1000900000000000000000000000000025460008ED
:1000A00025460008690D0008254600082546000879
:1000B0002546000825460008790D00082546000859
:1000C0002546000825460008254600082546000864
:1000D00025460008254600082546000800000000C7
:1000E00025460008254600082546000800000000B7
:1000F000000000000000000000000000254600088D
:100100000000000025460008254600082546000896
:1001100000000000000000000000000000000000DF
:1001200025460008890D00082546000825460008D8
:10013000254600080000000000000000000000004C
:10014000000000000000000000000000254600083C
:10015000254600082546000825460008990D000898
:1001600025460008254600080000000000000000A9
:10017000000000000000000000000000000000007F
:1001800000000000254600080000000000000000FC
:08019000254600082546000881
:1001A00053B94AB9002908BF00281CBF4FF0FF31DE
:1001B0004FF0FF3000F00CB8ADF1080C6DE904CE43
:1001C00004F06CFADDF804E0DDE9022304B07047C6
:1001D000704700BF0348044B834202D0034B03B176
:1001E0001847704750000020500000200000000019
:1001F0000548064B1B1AD90F01EBA301491002D089
:10020000034B03B1184770475000002050000020F6
:100210000000000010B5064C237843B9FFF7DAFF61
:10022000044B13B10448AFF300800123237010BDC9
:1002300050000020000000005849000808B5054B98
:100240001BB105490548AFF30080BDE80840FFF742
:10025000CFBF00BF00000000540000205849000834
:1002600008B50268034B9A4200D008BD01F0AEFF0A
:10027000FBE700BF0044014072B6FEE700B595B051
:100280003022002108A804F0CEF900230393049340
:1002900005930693079301931F4A116C41F0805117
:1002A0001164126C02F080520192019A02931B4B6E
:1002B0001A6842F440421A601B6803F440430293F8
:1002C000029B012308934FF48033099302230E937A
:1002D0004FF480020F92082210926422119212931E
:1002E0000423139308A801F04BF888B90F23039354
:1002F00002230493002305934FF480520692079340
:10030000032103A801F0A0FA20B915B05DF804FBA1
:10031000FFF7B2FFFFF7B0FF003802400070004067
:1003200008B501F039FFFFF7A9FF00F019F804F054
:1003300037F900F091F800F087FA00F0D1FA074C95
:100340000021204602F022FA0421204602F01EFA83
:1003500000F0E0F903F00AFEFEE700BF18030020FA
:100360002DE9F0418AB0002405940694079408947E
:1003700009940194344B1A6B42F004021A631A6B0D
:1003800002F004020192019A02941A6B42F0800278
:100390001A631A6B02F080020292029A03941A6B9B
:1003A00042F001021A631A6B02F001020392039AEF
:1003B00004941A6B42F002021A631B6B03F00203EF
:1003C0000493049B214E22464FF41051304601F015
:1003D00013FCDFF8808022464FF40041404601F0D4
:1003E0000BFC1B4F22464FF49C71384601F004FC75
:1003F0004FF400530593012506950795089405A928
:10040000304601F015FB4FF4004305930695079421
:10041000089405A9404601F00BFB4FF48063059357
:1004200006950794089405A9304601F001FB4FF4A6
:100430009C73059306950794089405A9384601F026
:10044000F7FA0AB0BDE8F081003802400008024027
:10045000000402400000024000B585B00023009374
:100460000193029303936B486B4A02604FF480320E
:100470004260836001220261037680F82030C3620B
:1004800066498162C3600E21C16180F830304261EB
:1004900000F090FD002840F08F800A230093012394
:1004A00001930523029369465A4800F093FE002801
:1004B00040F085800B230093022301936946554841
:1004C00000F088FE00287DD10C23009303230193C4
:1004D0006946504800F07EFE002876D10D23009337
:1004E0000423019369464B4800F074FE00286FD145
:1004F00000230093052301936946464800F06AFEF5
:10050000002868D1012300930623019369464148DE
:1005100000F060FE002861D10223009307230193BD
:1005200069463C4800F056FE00285AD10323009348
:10053000082301936946374800F04CFE002853D148
:1005400004230093092301936946324800F042FED8
:1005500000284CD1052300930A23019369462D48B6
:1005600000F038FE002845D1062300930B230193A9
:100570006946284800F02EFE00283ED1072300934C
:100580000C2301936946234800F024FEC0BB0823D6
:1005900000930D23019369461E4800F01BFE90BB9B
:1005A000092300930E23019369461A4800F012FEB6
:1005B00060BB05B05DF804FBFFF75EFE6DE7FFF77B
:1005C0005BFE77E7FFF758FE7EE7FFF755FE85E70E
:1005D000FFF752FE8CE7FFF74FFE93E7FFF74CFE65
:1005E0009AE7FFF749FEA1E7FFF746FEA8E7FFF706
:1005F00043FEAFE7FFF740FEB6E7FFF73DFEBDE77E
:10060000FFF73AFEC3E7FFF737FEC9E7FFF734FE0F
:10061000CFE700BF6C000020002001400100000F68
:1006200030B58BB000230593069307930893099385
:10063000026803F1804303F590339A4201D00BB076
:1006400030BD0024019403F58C335A6C42F480725F
:100650005A645A6C02F480720192019A02941A6BE5
:1006600042F004021A631A6B02F004020292029A28
:1006700003941A6B42F001021A631A6B02F0010232
:100680000392039A04941A6B42F002021A631B6BE2
:1006900003F002030493049B0F230593032506959F
:1006A00005A9094801F0C4F9FF23059306950794AD
:1006B00005A9064801F0BCF905950695079405A91A
:1006C000034801F0B5F9BAE7000802400000024013
:1006D0000004024008B5012003F080FCFBE708B5E8
:1006E00000F0A4F9012003F079FCFBE708B500F065
:1006F000BDFA012003F072FCFBE70000034B03602E
:10070000034B0B6080231360704700BFB4020020CE
:10071000B400002030B599B0002516951795012139
:1007200016A803F062FC1D4B18601D4C0DF13C0C2B
:10073000A646BEE80F00ACE80F009EE807008CE874
:10074000070029460FA803F016FC164B18600DF1A0
:10075000200C04F11C0EBEE80F00ACE80F009EE870
:1007600007008CE80700294608A803F004FC0E4B9C
:1007700018600DF1040E04F1380CBCE80F00AEE86F
:100780000F009CE807008EE80700294601A803F047
:10079000F2FB064B186019B030BD00BF0803002003
:1007A0007049000814030020100300200C030020EF
:1007B00002680E4B9A4200D0704700B583B0002209
:1007C000019203F50C33196C41F0040119641B6CA0
:1007D00003F004030193019B0A211E2001F0BEFCDB
:1007E0001E2001F0CBFC03B05DF804FB00080040C4
:1007F00000B587B0002301930293039304930593FC
:1008000002680E4B9A4202D007B05DF804FB002349
:1008100000930B4B1A6B42F002021A631B6B03F03E
:1008200002030093009BC0230193022302930593CC
:1008300001A9044801F0FCF8E6E700BF0008004009
:10084000003802400004024000B58BB0002308933A
:1008500009930193029303930493059306930793DB
:100860001D481E4A026001224260836040F2E73266
:10087000C26003618023836101F0B0FEF8B90023F8
:100880000893099308A9144801F0F8FFD0B9602330
:100890000193002202920392059201A90E4801F0F1
:1008A000F7FE90B904220DEB02010B4801F0F0FEB7
:1008B00070B90948FFF79CFF0BB05DF804FBFFF728
:1008C000DBFCDCE7FFF7D8FCE1E7FFF7D5FCE9E765
:1008D000FFF7D2FCEDE700BF18030020000800403E
:1008E00008B50A480A4B03604FF4E1334360002324
:1008F0008360C36003610C2242618361C36102F0C3
:10090000F3F800B908BDFFF7B7FCFBE7C003002010
:100910000014014030B589B000230393049305937C
:10092000069307930268264B9A4201D009B030BD66
:1009300004460025019503F592335A6C42F02002DB
:100940005A645A6C02F020020192019A02951A6BC5
:1009500042F001021A631B6B03F001030293029B36
:100960004FF4C053039302230493032306930823F5
:10097000079303A9134801F05BF81348134B036076
:100980004FF0206343608560C5604FF4806303616E
:1009900045618561C5610562456201F0B3F958B9E9
:1009A000094BA3639C6300220521472001F0D6FB7D
:1009B000472001F0E3FBB9E7FFF75EFCF0E700BF7B
:1009C000001401400000024060030020286402403F
:1009D00000B583B00023019303681A6801925B6835
:1009E0000193019B0922034902F07AFB03B05DF8F1
:1009F00004FB00BF0404002010B50A4B187001224C
:100A000008E0531EDB0021FA03F3C2F10400054C99
:100A100023540132032AF4DD04220249024802F081
:100A200092F810BD14040020C003002008B5134C38
:100A300009221349204602F053FB042211492046A3
:100A400002F081F80D4802F0F1FA2128FAD00B48A3
:100A500002F0ECFA2328F5D032210020FFF7CCFF7A
:100A60004FF4FA7003F0BAFA78210020FFF7C4FFC0
:100A70004FF4FA7003F0B2FAE4E700BFC0030020BD
:100A8000040400201404002010B504461A4B5B78BF
:100A9000303B032B2AD8DFE803F002111B2200228F
:100AA0004FF40051154801F0A7F8154B00221A70B9
:100AB00009221149204602F013FB10BD01224FF418
:100AC00000510E4801F098F80D4B01221A70EFE723
:100AD00001224FF40051094801F08EF8E8E70122A5
:100AE0004FF40051054801F087F8E1E74521042063
:100AF000FFF782FFDCE700BF04040020000802408B
:100B00002E04002038B5144800F080FA00240BE0D1
:100B1000114D0121284600F0FDFA284600F056FB51
:100B20000E4B43F8240001340D2CF1DD01230C4A57
:100B3000137005E000220B49CA5409490A700133B9
:100B40000C2B08DC054A52F82320F92AF2DC054A6E
:100B50000121D154F3E738BD6C0000203804002097
:100B60002C040020700400200023354A1360354A0D
:100B70001360354A136000E001330D2B0FDC334A5C
:100B8000D25C002AF8D1324A52F823002C490A6874
:100B900002440A602C490A6801320A60ECE72D4BD6
:100BA000D3ED006A2C4BC3ED006A274B1A6852B193
:100BB000234B1B6893FBF2F307EE903AF8EEE77ACB
:100BC000244BC3ED007A234B93ED007A234BD3EDF6
:100BD000007A67EE277A37EE667A214BD3ED006A0A
:100BE00027EE267A77EE877AFDEEE77A17EE903ACF
:100BF000144AC2ED007A03F1FC021A490A60C3F1FB
:100C0000FC0319490B60B2F57A7F0BDB154A40F201
:100C1000E7311160B3F57A7F0ADB134B40F2E7321C
:100C20001A607047002AF5DA0E4A00211160F1E7D8
:100C3000002B00DB70470C4B00221A60FAE700BF64
:100C40001C04002028040020180400207004002048
:100C50000000002024040020200400203C0000208C
:100C600038000020340400203004002038B5324D14
:100C700000224FF40041284600F0BEFF2F4C012215
:100C80000821204600F0B8FF00224FF4004128461A
:100C900000F0B2FF01221021204600F0ADFF34E049
:100CA0000133062B05DC264AD25C002AF8D101303C
:100CB000F6E70723002100E001330C2B05DC204A76
:100CC000D25C002AF8D10131F6E7884206DD1D4BDF
:100CD00001221A70012003F081F916E0194B00225D
:100CE0001A70F7E7174B1B782BB1174B00225A638A
:100CF000FC229A6309E0144BFC225A6300229A6397
:100D000003E0114B00225A639A63104B1B78002BAF
:100D1000F7D0FFF7F7FE0E4B1B78002BE2D1FFF761
:100D200023FF0C4B1A68084B5A630B4A12689A63EC
:100D300001230020B5E700BF00000240000402408C
:100D4000700400202D040020000800402E04002024
:100D50002C0400203404002030040020FEE7FEE7CD
:100D6000FEE7FEE7FEE7704708B5024801F0FEFA2D
:100D700008BD00BF8004002008B5024801F0F6FA63
:100D800008BD00BF1803002008B5024801F0B2F802
:100D900008BD00BF6003002008B5024801F0B0FFA5
:100DA00008BD00BFC003002000B583B00022009240
:100DB0000D4B596C41F480415964596C01F48041E8
:100DC000009100990192196C41F0805119641B6CDB
:100DD00003F080530193019B0F216FF0010001F09C
:100DE000BDF903B05DF804FB0038024030B589B0AE
:100DF0000546002401941D4B5A6C42F400325A649B
:100E00005B6C03F400330193019B02A903A800F07B
:100E1000F1FD00F0DFFD164AA2FB00239B0C013B15
:100E20001448154A026040F2E732C2604360046130
:100E30008460846101F0A6FB044610B1204609B02D
:100E400030BD0C4801F052FA04460028F6D11920B2
:100E500001F094F90F2D01D90124EFE70022294672
:100E6000192001F07BF9054B1D60E7E700380240CF
:100E700083DE1B4380040020004401404400002026
:100E80004A4B5A6822F440325A605A6841680A4311
:100E90005A600268536823F4807353600268536891
:100EA000016943EA012353600268536823F04073E9
:100EB00053600268536881680B435360026893680B
:100EC00023F40063936002689368C1680B439360E6
:100ED000826A374B9A4257D00268936823F0706356
:100EE000936002689368816A0B4393600268936819
:100EF00023F04053936002689368C16A0B43936088
:100F00000268936823F00203936002689368017E8D
:100F100043EA4103936090F82030002B3FD00268F1
:100F2000536843F4006353600268536823F46043DA
:100F3000536001684B68426A013A43EA42334B60AE
:100F40000268D36A23F47003D3620168CB6AC26972
:100F5000013A43EA0253CB620268936823F40073B8
:100F600093600268936890F8301043EA41239360DD
:100F70000268936823F48063936002689368416910
:100F800043EA8123936070470268936823F070639B
:100F900093600268936823F040539360B0E702685F
:100FA000536823F400635360CAE700BF0023014085
:100FB0000100000F38B310B50446036C43B1236C35
:100FC00013F0100F0BD00120002384F83C3010BD2B
:100FD000FFF726FB0023636484F83C30EFE7236CC3
:100FE00023F4885323F0020343F0020323642046D2
:100FF000FFF746FF00206064236C23F0030343F0F7
:1010000001032364E0E701207047000082B0002361
:10101000019390F83C30012B6ED0012380F83C30D6
:1010200003689A6812F0010F13D19A6842F0010226
:101030009A60344B1B68344AA2FB03239B0C03EBDE
:101040004303019302E0019B013B0193019B002BB1
:10105000F9D10268936813F0010F42D0036C23F4B6
:10106000E06323F0010343F480730364536813F4D3
:10107000806F05D0036C23F4405343F48053036422
:10108000036C13F4805F19D0436C23F006034364B0
:10109000002380F83C306FF0220313601B4B5B6829
:1010A00013F01F0F0DD103689A6812F0405F25D12D
:1010B0009A6842F080429A6000201BE0002343645B
:1010C000E6E70368124A934201D0002012E09A68D2
:1010D00012F0405F14D19A6842F080429A6000207A
:1010E00008E0036C43F010030364436C43F0010316
:1010F0004364002002B070470220FBE70020F9E7BC
:101100000020F7E74800002083DE1B430023014056
:101110000020014070B504460D4603689A6812F439
:10112000806F03D09B6813F4807F19D101F05AF8C7
:10113000064623681A6812F0020F20D1B5F1FF3F6E
:10114000F7D0B5B923681B6813F0020FF1D1236CF7
:1011500043F004032364002384F83C30032032E08E
:10116000036C43F020030364002380F83C3001202B
:1011700029E001F037F8801BA842DAD9E2E76FF0E6
:1011800012021A60236C43F40073236423689A6884
:1011900012F0405F16D1207EB0B9DA6A12F4700FF7
:1011A00003D09B6813F4806F0DD1236C23F48073FC
:1011B0002364236C13F4805F05D1236C43F0010397
:1011C000236400E0002070BD0020FCE70368D86CB9
:1011D0007047000030B482B00022019290F83C20A9
:1011E000012A00F0C0800346012280F83C200A68F2
:1011F000092A40D90468E06892B202EB42021E3A22
:101200004FF0070C0CFA02F220EA0202E2601C68BE
:10121000E0680A8802EB42021E3A8D6805FA02F283
:101220000243E2604A68062A3CD81C68606B02EB05
:101230008202053A4FF01F0C0CFA02F220EA020279
:1012400062631C68606B4A6802EB8202053AB1F87F
:1012500000C00CFA02F2024362631868434A9042EB
:1012600050D01868414A904259D0002083F83C0081
:1012700002B030BC70470468206992B202EB4202AF
:101280004FF0070C0CFA02F220EA020222611C68FD
:1012900020690A8802EB42028D6805FA02F20243D5
:1012A0002261BFE70C2A16D81D68286B02EB820268
:1012B000233A1F2404FA02F220EA02022A631D687C
:1012C000286B4A6802EB8202233A0C8804FA02F285
:1012D00002432A63C1E71D68E86A02EB8202413AD1
:1012E0001F2404FA02F220EA0202EA621D68E86A98
:1012F0004A6802EB8202413A0C8804FA02F2024385
:10130000EA62AAE70A68122AABD1194A506820F4A7
:1013100000005060506840F480005060A1E70A6807
:101320001448824201D0112A9FD1114A506820F4FA
:1013300080005060506840F40000506009680D4A19
:10134000914292D10C4A12680C49A1FB0212920CF4
:1013500002EB820252000192019A002A85D0019A82
:10136000013A0192F8E7022082E700BF0020014025
:1013700000230140120000104800002083DE1B43C0
:10138000002800F0E08170B582B00446036813F0D5
:10139000010F3BD09F4B9B6803F00C03042B2CD018
:1013A0009C4B9B6803F00C03082B21D06368B3F5BA
:1013B000803F4FD0B3F5A02F52D0964B1A6822F43D
:1013C00080321A601A6822F480221A606368002B47
:1013D00050D000F007FF05468E4B1B6813F4003F0A
:1013E00014D100F0FFFE401B6428F5D90320B1E1C1
:1013F000884B5B6813F4800FD8D0864B1B6813F4BE
:10140000003F03D06368002B00F09F81236813F036
:10141000020F54D07F4B9B6813F00C0F3ED07D4BD6
:101420009B6803F00C03082B33D0E368002B68D0D3
:10143000794B01221A6000F0D5FE0546754B1B68FA
:1014400013F0020F54D100F0CDFE401B0228F5D955
:1014500003207FE16F4A136843F480331360B5E7DC
:101460006C4B1A6842F480221A601A6842F4803287
:101470001A60ABE700F0B6FE0546664B1B6813F436
:10148000003FC3D000F0AEFE401B6428F5D9032016
:1014900060E1604B5B6813F4800FC6D15D4B1B6845
:1014A00013F0020F03D0E368012B40F05081594A3A
:1014B000136823F0F803216943EAC103136023682A
:1014C00013F0080F42D063696BB3534B0122C3F88A
:1014D000802E00F087FE05464E4B5B6F13F0020F27
:1014E00034D100F07FFE401B0228F5D9032031E102
:1014F000484A136823F0F803216943EAC1031360E3
:10150000DDE7454B00221A6000F06CFE0546414BBA
:101510001B6813F0020FD2D000F064FE401B0228BB
:10152000F5D9032016E13C4B0022C3F8802E00F0D1
:1015300059FE0546374B5B6F13F0020F06D000F0E3
:1015400051FE401B0228F5D9032003E1236813F064
:10155000040F77D02F4B1B6C13F0805F33D1002327
:1015600001932C4B1A6C42F080521A641B6C03F0EE
:1015700080530193019B0125284B1B6813F4807F46
:1015800023D0A368012B34D0052B38D0214B1A6F00
:1015900022F001021A671A6F22F004021A67A36888
:1015A000002B3DD000F01EFE06461A4B1B6F13F0B9
:1015B000020F46D100F016FE801B41F2883398429C
:1015C000F3D90320C6E00025D6E7144A136843F494
:1015D0008073136000F006FE0646104B1B6813F480
:1015E000807FCED100F0FEFD801B0228F5D90320BC
:1015F000B0E0084A136F43F001031367CFE7054BD0
:101600001A6F42F004021A671A6F42F001021A6759
:10161000C5E700BF003802400000474200700040AC
:1016200000F0E0FD0646524B1B6F13F0020F08D08E
:1016300000F0D8FD801B41F288339842F3D9032093
:1016400088E0EDB9A369002B00F08380484A9268D6
:1016500002F00C02082A51D0022B17D0454B002271
:101660001A6600F0BFFD0446414B1B6813F0007F73
:1016700042D000F0B7FD001B0228F5D9032069E035
:101680003B4A136C23F080531364DBE7394B002291
:101690001A6600F0A7FD0546354B1B6813F0007F66
:1016A00006D000F09FFD401B0228F5D9032051E031
:1016B000E369226A1343626A43EA8213A26A520808
:1016C000013A43EA0243E26A43EA0263284A53606A
:1016D000284B01221A6600F085FD0446244B1B6846
:1016E00013F0007F06D100F07DFD001B0228F5D924
:1016F00003202FE000202DE000202BE0012B2BD039
:101700001B4B5B6803F48001E269914226D103F030
:101710003F02216A8A4223D1616A47F6C0721A40A9
:10172000B2EB811F1ED103F44031A26A5208013A84
:10173000B1EB024F18D103F07063E26AB3EB026FB2
:1017400014D1002006E001207047012002E00120B2
:1017500000E0002002B070BD0120FBE70120F9E7A6
:101760000120F7E70120F5E70120F3E70120F1E789
:10177000003802400000474208B5314B9B6803F037
:101780000C03082B01D02F4808BD2D4B5A6802F0DE
:101790003F025B6813F4800F2CD0294B5868C0F3CC
:1017A00088104FEA401CBCEB000C6EEB0E0E4FEAAB
:1017B0008E1343EA9C634FEA8C11B1EB0C0163EB8F
:1017C0000E03DB0043EA5173C90011EB000C43F137
:1017D0000003990200234FEA8C2041EA9C51FEF756
:1017E000DFFC174B5B68C3F3014301335B00B0FBC5
:1017F000F3F0C9E7124B5868C0F388104FEA401C59
:10180000BCEB000C6EEB0E0E4FEA8E1343EA9C63AA
:101810004FEA8C11B1EB0C0163EB0E03DB0043EAE2
:101820005173C90011EB000C43F10003990200232E
:101830004FEA8C2041EA9C51FEF7B2FCD1E700BF91
:10184000003802400024F400002800F09B8070B5AE
:101850000D4604464F4B1B6803F007038B4208D22A
:10186000CBB24C4A1370136803F007038B4240F06D
:101870008B80236813F0020F17D013F0040F04D0ED
:10188000454A936843F4E0539360236813F0080FCC
:1018900004D0414A936843F4604393603E4A93689E
:1018A00023F0F003A1680B439360236813F0010F4A
:1018B00032D06368012B21D09A1E012A25D9364ADD
:1018C000126812F0020F61D033498A6822F00302D5
:1018D00013438B6000F086FC06462F4B9B6803F099
:1018E0000C036268B3EB820F16D000F07BFC801B08
:1018F00041F288339842F0D9032042E0264A126828
:1019000012F4003FE0D101203BE0234A126812F0BC
:10191000007FD9D1012034E01E4B1B6803F0070380
:10192000AB4207D9EAB21B4B1A701B6803F00703DE
:10193000AB422DD1236813F0040F06D0164A9368EA
:1019400023F4E053E1680B439360236813F0080F1E
:1019500007D0114A936823F46043216943EAC10325
:101960009360FFF709FF0C4B9B68C3F303130B4A0B
:10197000D35CD8400A4B18600A4B1868FFF736FA58
:10198000002070BD012070470120FAE70120F8E730
:101990000120F6E7003C024000380240F849000808
:1019A0004800002044000020014B1868704700BF29
:1019B0004800002008B5FFF7F7FF044B9B68C3F30E
:1019C0008223034AD35CD84008BD00BF00380240E0
:1019D000F049000808B5FFF7E7FF044B9B68C3F325
:1019E0004233034AD35CD84008BD00BF00380240F0
:1019F000F04900080F2303600B4B9A6802F00302C2
:101A000042609A6802F0F00282609A6802F4E05242
:101A1000C2609B68DB0803F4E0530361034B1B685F
:101A200003F007030B60704700380240003C02409F
:101A300000230F2B00F2D78070B582B065E0856877
:101A40004FEA430E032404FA0EF425EA0405CC6899
:101A500004FA0EF42C438460446824EA02044A68C1
:101A6000C2F300129A40224342605CE0DC08083472
:101A700050F8242003F00705AD004FF00F0E0EFACA
:101A800005FE22EA0E0E0A69AA4042EA0E0240F85A
:101A900024205CE0042200E0002202FA0EF22A4335
:101AA0000234514D45F82420504A94686FEA0C02E4
:101AB00024EA0C054E6816F4801F01D04CEA040598
:101AC0004A4CA560E46802EA04054E6816F4001F5B
:101AD00001D04CEA0405454CE560646802EA04055F
:101AE0004E6816F4003F01D04CEA04053F4C656097
:101AF000246822404D6815F4803F01D04CEA04026E
:101B00003A4C226001330F2B6BD801229A400C68AB
:101B100004EA020C32EA0404F4D14C6804F0030431
:101B2000013C012C8BD94A6802F00302032A09D038
:101B3000C4685D000322AA4024EA02048A68AA401D
:101B40002243C2604A6802F00302022A8ED004686F
:101B50004FEA430E032202FA0EF224EA02044A6814
:101B600002F0030202FA0EF2224302604A6812F403
:101B7000403FC7D0002201921D4A546C44F4804477
:101B80005464526C02F480420192019A9C08A51C94
:101B9000154A52F8255003F0030E4FEA8E0E0F221D
:101BA00002FA0EF225EA0205124A90423FF474AF9F
:101BB00002F5806290420ED002F5806290420CD015
:101BC00002F5806290420AD002F5806290423FF4B2
:101BD00061AF072261E701225FE702225DE703228E
:101BE0005BE702B070BD704700380140003C014027
:101BF00000380240000002400AB1816170470904C8
:101C00008161704730B405682C6824F480242C600E
:101C1000046863608368402B05D00368996003689B
:101C2000DA6030BC704703689A600368D960F8E7EF
:101C300010B40368D9B210390C4AA2FB0142120950
:101C40000B4CA25CC2655F2909D923F47F7323F092
:101C5000030304338365806D5DF8044B704723F400
:101C60007F7323F003038365F5E700BFABAAAAAA3D
:101C7000E8490008836A826992B9012B0AD0022BD5
:101C800002D00BB100207047C36A13F0807F28D1C7
:101C900000207047C36AB3F1C07F24D00020704792
:101CA000B2F5005F09D0022B25D9032B25D1C36AD9
:101CB00013F0807F23D100207047032B03D8DFE887
:101CC00003F01404140A00207047C36A13F0807FE5
:101CD0000DD100207047C36AB3F1C07F09D0002046
:101CE0007047012070470120704701207047012094
:101CF0007047012070470120704700207047012085
:101D00007047000070B5044600F06CFA002C5BD000
:101D10000546022384F83530002384F834302268E5
:101D2000136823F00103136023681A6812F0010F8F
:101D30000AD000F057FA431B052BF5D92023636521
:101D4000032084F8350070BD1A682049114062688C
:101D5000A0680243E06802432069024360690243CD
:101D6000A0690243E0690243206A02430A43616AB0
:101D700004291ED01A602668756925F00705636A74
:101D80001D43042B07D1A36A1D43E36A1BB1204600
:101D9000FFF770FF90B975612046FFF749FFE26DCC
:101DA0003F239340836000206065012384F8353031
:101DB000C9E7E16A206B01430A43DBE7402363651F
:101DC000012084F83500BEE70120BCE73F8010F019
:101DD00038B50446856D90F8340001282BD00120D9
:101DE00084F8340094F83500C0B2012804D00023F0
:101DF00084F83430022038BD022084F835000020F9
:101E000060652046FFF7FEFEE26D3F239340AB6026
:101E10002268136843F016031360236C23B1226811
:101E2000136843F0080313602268136843F001034A
:101E300013600020DFE70220DDE770B50446866D01
:101E400000F0D0F994F83530DBB2022B06D08023B5
:101E50006365002384F83430012070BD0546226894
:101E6000136823F0160313602268536923F080037C
:101E70005361236CE3B12268136823F008031360F5
:101E80002268136823F00103136023681B6813F0B2
:101E9000010F11D000F0A6F9431B052BF5D9202323
:101EA0006365032084F83500002384F83430D4E7D8
:101EB000A36C002BDFD1E3E7E26D3F239340B360D7
:101EC000012384F83530002084F83400C5E790F809
:101ED0003530DBB2022B03D08023436501207047ED
:101EE000052380F835300268136823F0010313607E
:101EF00000207047F0B583B0044600230193724B75
:101F00001D68724BA3FB0535AD0A876D3E68C26D37
:101F100008239340334210D003681A6812F0040F6C
:101F20000BD01A6822F004021A60C26D0823934095
:101F3000BB60436D43F001034365E26D01239340B1
:101F4000334209D02268526912F0800F04D0BB607E
:101F5000636D43F002036365E26D042393403342F3
:101F600009D02268126812F0020F04D0BB60636DC2
:101F700043F004036365E26D10239340334224D0A1
:101F80002268126812F0080F1FD0BB6023681A681D
:101F900012F4802F0DD01B6813F4002F04D1236C92
:101FA0009BB12046984710E0A36C73B12046984738
:101FB0000BE01A6812F4807F03D11A6822F008023D
:101FC0001A60236C0BB120469847E26D20239340A2
:101FD000334255D02268126812F0100F50D0BB6007
:101FE00094F83530DBB2052B0ED023681A6812F452
:101FF000802F33D01B6813F4002F2AD1636C002B81
:102000003ED0204698473BE02268136823F0160331
:1020100013602268536923F080035361236CA3B1DA
:102020002268136823F008031360E26D3F23934096
:10203000BB60012384F83530002384F83430236DED
:10204000002B3FD0204698473CE0A36C002BE7D103
:10205000EBE7E36BA3B12046984711E01A6812F44E
:10206000807F09D11A6822F010021A60012384F8D7
:102070003530002384F83430E36B0BB120469847A9
:10208000636DFBB1636D13F0010F17D0052384F866
:1020900035302268136823F001031360019B01337C
:1020A0000193AB4204D823681B6813F0010FF5D1EC
:1020B000012384F83530002384F83430E36C0BB10D
:1020C0002046984703B0F0BD48000020B5814E1B64
:1020D000002808DB0901C9B200F1604000F5614049
:1020E00080F80013704700F00F000901C9B2014BDE
:1020F0001954704714ED00E000B500F00700C0F17E
:10210000070CBCF1040F28BF4FF0040C031D062B75
:102110000FD9C31E4FF0FF3E0EFA0CF021EA00016A
:1021200099400EFA03FE22EA0E0241EA02005DF82F
:1021300004FB0023EEE70000074AD36823F4E063C2
:102140001B041B0C000200F4E060034343F0BF6378
:1021500043F40033D360704700ED00E010B504464F
:10216000054BD868C0F30220FFF7C6FF01462046A2
:10217000FFF7AEFF10BD00BF00ED00E0002807DB59
:1021800000F01F02400901239340024A42F8203028
:10219000704700BF00E100E008B50B4B1A6842F43D
:1021A00000721A601A6842F480621A601A6842F477
:1021B00080721A600320FFF7BFFF0F20FEF716FEA4
:1021C000FEF7F2FD002008BD003C0240034A116802
:1021D000034B1B780B441360704700BFC8040020FA
:1021E00040000020014B1868704700BFC804002061
:1021F00030B4036A23F001030362026A456883690D
:1022000023F073030C681C4322F002028B68134313
:102210000B4A904206D0456084614A68426303627B
:1022200030BC704723F00803CA681A4322F0040345
:1022300025F440754A692A438D691543EBE700BFD1
:102240000000014030B4036A23F480730362036A20
:102250004468C26922F073020D68154323F40073C9
:102260008A6843EA02230D4A904206D04460C56161
:102270004A68C263036230BC704723F40063CA68D3
:1022800043EA022323F4806324F440544A6944EA75
:1022900002148A6944EA0214E8E700BF0000014022
:1022A00030B4036A23F480530362036A4468C2694A
:1022B00022F4E6420D6842EA052223F400538D68B9
:1022C00043EA0533074DA84206D04460C2614A681C
:1022D0000264036230BC704724F480444D6944EAD0
:1022E0008514F2E7000001407047000090F83D308F
:1022F000DBB2012B2FD1022380F83D300268D36876
:1023000043F00103D3600368154A934218D0B3F138
:10231000804F15D0A2F57C42934211D002F5806225
:1023200093420DD002F58062934209D002F59A32B1
:10233000934205D01A6842F001021A6000207047EB
:102340009A6802F00702062A07D01A6842F00102D2
:102350001A6000207047012070470020704700BFBE
:1023600000000140704770477047704710B5044641
:1023700003681A6912F0020F11D0DA6812F0020F26
:102380000DD06FF002021A610123037703689B6985
:1023900013F0030F70D0FFF7E6FF002323772368C5
:1023A0001A6912F0040F12D0DA6812F0040F0ED07E
:1023B0006FF004021A610223237723689B6913F4E8
:1023C000407F5FD02046FFF7CEFF002323772368AE
:1023D0001A6912F0080F12D0DA6812F0080F0ED046
:1023E0006FF008021A61042323772368DB6913F076
:1023F000030F4ED02046FFF7B6FF00232377236854
:102400001A6912F0100F12D0DA6812F0100F0ED005
:102410006FF010021A61082323772368DB6913F435
:10242000407F3DD02046FFF79EFF0023237723689F
:102430001A6912F0010F03D0DA6812F0010F36D1D9
:1024400023681A6912F0800F03D0DA6812F0800F47
:1024500034D123681A6912F0400F03D0DA6812F001
:10246000400F32D123681A6912F0200F03D0DA68C6
:1024700012F0200F30D110BDFFF774FF2046FFF798
:1024800073FF8AE72046FFF76DFF2046FFF76CFFDA
:102490009BE72046FFF766FF2046FFF765FFACE7A6
:1024A0002046FFF75FFF2046FFF75EFFBDE76FF0B6
:1024B00001021A612046FDF7D3FEC1E76FF08002EA
:1024C0001A61204600F019FAC3E76FF040021A6162
:1024D0002046FFF74AFFC5E76FF020021A61204649
:1024E00000F00AFAC7E700000368254A90420ED0C0
:1024F000B0F1804F0BD0A2F57C42904207D002F59C
:102500008062904203D002F58062904203D123F0B2
:1025100070034A6813431A4A90421AD0B0F1804FB0
:1025200017D0A2F57C42904213D002F5806290420F
:102530000FD002F5806290420BD002F59A329042A1
:1025400007D002F58062904203D002F5806290428B
:1025500003D123F44073CA68134323F080034A690C
:10256000134303608B68C3620B688362044B984219
:1025700002D00123436170470B690363F9E700BF91
:102580000000014040B310B5044690F83D30F3B16F
:10259000022384F83D30214651F8040BFFF7A4FFD5
:1025A000012384F8463084F83E3084F83F3084F8C4
:1025B000403084F8413084F8423084F8433084F865
:1025C000443084F8453084F83D30002010BD80F858
:1025D0003C30FFF789FEDBE70120704740B310B5C0
:1025E000044690F83D30F3B1022384F83D30214693
:1025F00051F8040BFFF778FF012384F8463084F884
:102600003E3084F83F3084F8403084F8413084F81C
:10261000423084F8433084F8443084F8453084F8FC
:102620003D30002010BD80F83C30FEF7C1F8DBE7FC
:102630000120704730B4036A23F010030362036A79
:102640004468826922F4E6420D6842EA052223F0DA
:1026500020038D6843EA05130C4DA84206D0446060
:1026600082614A688263036230BC704723F0800352
:10267000CD6843EA051323F0400324F440644D6918
:1026800044EA85048D6944EA8504E8E700000140D6
:1026900038B590F83C30012B66D004460D46012336
:1026A00080F83C300C2A5AD8DFE802F00759595913
:1026B0001B5959593059595944000068FFF798FD82
:1026C0002268936943F0080393612268936923F0B9
:1026D000040393612268936929690B439361002085
:1026E0003EE00068FFF7A6FF2268936943F40063A9
:1026F00093612268936923F48063936122689369EC
:10270000296943EA01239361002029E00068FFF76B
:1027100099FD2268D36943F00803D3612268D36925
:1027200023F00403D3612268D36929690B43D36181
:10273000002015E00068FFF7B3FD2268D36943F479
:102740000063D3612268D36923F48063D361226874
:10275000D369296943EA0123D361002000E0012005
:10276000002384F83C3038BD0220FCE701F01F0153
:102770004FF0010C0CFA01FC036A23EA0C0303621C
:10278000036A8A40134303627047000010B5044691
:102790000846002932D194F83E30DBB2013B18BF25
:1027A0000123002B63D1002841D1022384F83E305D
:1027B000012201462068FFF7D9FF23682E4A934281
:1027C00045D023682C4A934246D0B3F1804F43D082
:1027D000A2F57C4293423FD002F5806293423BD007
:1027E00002F58062934237D002F59A32934233D099
:1027F0001A6842F001021A60002037E0042908D06C
:1028000008290DD094F84130DBB2013B18BF0123F9
:10281000C7E794F83F30DBB2013B18BF0123C0E7A4
:1028200094F84030DBB2013B18BF0123B9E704281C
:1028300005D0082807D0022384F84130B8E70223E6
:1028400084F83F30B4E7022384F84030B0E75A6C94
:1028500042F400425A64B4E79A6802F00702062A7A
:1028600007D01A6842F001021A60002010BD012052
:10287000FCE70020FAE700BF0000014090F83C2090
:10288000012A35D010B40346012280F83C200222F0
:1028900080F83D2002685068946820F0700C086849
:1028A00040EA0C0050601A681248824212D0B2F11D
:1028B000804F0FD0A0F57C4082420BD000F58060A5
:1028C000824207D000F58060824203D000F59A3042
:1028D000824204D124F0800449682143916001229E
:1028E00083F83D20002083F83C005DF8044B7047DE
:1028F000022070470000014070477047026802F1F3
:102900000C0353E8003F23F0C0030C3242E80031CF
:102910000029F3D1202380F83D307047026802F18E
:102920000C0353E8003F23F490730C3242E800316B
:102930000029F3D1026802F1140353E8003F23F0A9
:102940000103143242E800310029F3D1036B012B5B
:1029500005D0202380F83E300023036370470268CF
:1029600002F10C0353E8003F23F010030C3242E85D
:1029700000310029F3D1ECE790F83D30DBB2212B98
:1029800001D0022070478368B3F5805F17D0036AD7
:102990005A1C02621A7803685A60C38C9BB2013BCE
:1029A0009BB2C3844BB90268D36823F08003D36021
:1029B0000268D36843F04003D36000207047036986
:1029C000002BE4D1036A1B880268C3F30803536039
:1029D000036A02330362E0E710B504460268136934
:1029E00023F44053C1680B431361836802691A439F
:1029F00043691A43C3691A430168CB6823F4164339
:102A000023F00C031343CB600268536923F4407333
:102A100081690B4353610368314A934206D002F542
:102A20008062934202D0FEF7C5FF01E0FEF7D2FFBD
:102A3000E369B3F5004F29D00021031849411B1861
:102A400041F10001C90041EA5371DB0018186368C5
:102A50004FEA83024FEA937341F10001FDF7A0FBB7
:102A6000204AA2FB00314909642303FB11031B0127
:102A70003233A2FB03235B0903F0F00202EB0112E5
:102A800003F00F03216813448B6010BD002302186C
:102A900043EB0301121841F10001C90041EA5271F0
:102AA000D200101841F10001626892185B41FDF7F5
:102AB00077FB0C4AA2FB00314909642303FB110395
:102AC000DB003233A2FB03235B095A0002F4F872E5
:102AD00002EB011203F00703216813448B60D4E773
:102AE000001001401F85EB5158B310B5044690F813
:102AF0003D300BB3242384F83D302268D36823F49F
:102B00000053D3602046FFF767FF2268136923F460
:102B1000904313612268536923F02A0353612268AA
:102B2000D36843F40053D36000202064202384F84A
:102B30003D3084F83E3010BD80F83C30FDF7EAFEB1
:102B4000D8E70120704790F83D30DBB2202B19D137
:102B5000D1B1DAB190F83C30012B19D0012380F8C3
:102B60003C3001628284C28400230364212280F805
:102B70003D2080F83C300168CA6842F08002CA609B
:102B800018467047022070470120704701207047A7
:102B900002207047704708B50168CA6822F04002F9
:102BA000CA60202280F83D20FFF7F4FF002008BD16
:102BB000704710B5846B23685A6994F83D30DBB2D6
:102BC000212B10D023685A6902F0400294F83E305D
:102BD000DBB2222B11D0236C43F010032364204678
:102BE000FDF7F6FE10BD02F08002002AEAD00023B5
:102BF000E3842046FFF782FEE4E7002AEBD00023BF
:102C0000E3852046FFF78AFEE5E708B5806B0023E1
:102C1000C385C384FDF7DCFE08BD704790F83E30E5
:102C2000DBB2222B67D18368B3F5805F4DD0826A17
:102C3000B3F5805F04D0002B54D10369002B51D130
:102C400003685B681370836A01338362C38D9BB230
:102C5000013B9BB2C385002B4FD100B583B0026806
:102C6000D36823F02003D3600268D36823F4807311
:102C7000D3600268536923F001035361202380F875
:102C80003E30036B012B33D100230363026802F152
:102C90000C0353E8003F23F010030C3242E80031EC
:102CA0000029F3D103681A6812F0100F06D0002231
:102CB00001921A6801925B680193019B818DFFF775
:102CC000ACFF002003B05DF804FB0269002AAED11E
:102CD000826A03685B68C3F308031380836A023364
:102CE0008362B3E703685B6803F07F031370AAE7AE
:102CF000FDF7CAFEE5E7022070470020704700009C
:102D000010B582B0044602681368D068516913F0A8
:102D10000F0F09D113F0200F0CD010F0200F09D0A5
:102D20002046FFF77BFF16E011F0010115D110F4EA
:102D3000907F12D1216B012979D013F0800F03D03D
:102D400010F0800F40F0108113F0400F03D010F00E
:102D5000400F40F00D8102B010BD13F0010F06D0FE
:102D600010F4807F03D0226C42F00102226413F041
:102D7000040F04D019B1226C42F00202226413F055
:102D8000020F04D019B1226C42F00402226413F045
:102D9000080F07D010F0200F00D119B1226C42F0BB
:102DA00008022264226C002AD5D013F0200F02D032
:102DB00010F0200F29D123685B6903F04003226CD7
:102DC00012F0080F00D163B32046FFF7A7FD236878
:102DD0005B6913F0400F20D0226802F1140353E81E
:102DE000003F23F04003143242E800310029F3D1C0
:102DF000A36B73B1604A1A65A06BFFF768F80028EF
:102E0000A9D0A06B036D9847A5E72046FFF706FF02
:102E1000D1E72046FDF7DCFD9DE72046FDF7D8FD14
:102E200099E72046FDF7D4FD0023236493E713F0D0
:102E3000100F82D010F0100F3FF47FAF00230193EA
:102E40001368019353680193019B536913F0400F7A
:102E500050D0A26B13685B689BB2002B3FF47BAF32
:102E6000A18D99427FF677AFE385D369B3F5807F73
:102E700037D0226802F10C0353E8003F23F480733B
:102E80000C3242E800310029F3D1226802F1140328
:102E900053E8003F23F00103143242E800310029D7
:102EA000F3D1226802F1140353E8003F23F04003FA
:102EB000143242E800310029F3D1202384F83E3057
:102EC00000232363226802F10C0353E8003F23F040
:102ED00010030C3242E800310029F3D1A06BFEF759
:102EE000ACFFA18DE38D9BB2C91A89B22046FFF7D2
:102EF00094FE30E7A18DE38D9BB2C91A89B2E38DB0
:102F00009BB2002B3FF427AF00293FF424AF226887
:102F100002F10C0353E8003F23F490730C3242E8B3
:102F200000300028F3D1226802F1140353E8003F77
:102F300023F00103143242E800300028F3D12023AB
:102F400084F83E3000232363226802F10C0353E827
:102F5000003F23F010030C3242E800300028F3D188
:102F60002046FFF75AFEF6E62046FFF705FDF2E69B
:102F70002046FFF710FEEEE60B2C000808B5806B2C
:102F8000036B012B02D0FFF713FE08BD818D4908AA
:102F9000FFF743FEF9E708B50346806B1B681B6823
:102FA00013F4807F2BD10023C385026802F10C0348
:102FB00053E8003F23F480730C3242E800310029CB
:102FC000F3D1026802F1140353E8003F23F0010338
:102FD000143242E800310029F3D1026802F11403EF
:102FE00053E8003F23F04003143242E80031002947
:102FF000F3D1202380F83E30036B012B05D0036B07
:10300000012B0FD0FDF740FD08BD026802F10C0353
:1030100053E8003F23F010030C3242E8003100294E
:10302000F3D1ECE7818DFFF7F8FDEDE790F83D3047
:1030300090F83E001843704730B583B004461346FD
:103040008162828500250564222280F83E20826B01
:103050002048D063A26B20481064A26B1F48D06444
:10306000A26B156520680A46011DA06BFEF7B0FE35
:10307000019523681A6801925B680193019B84F8AB
:103080003C5023695BB1226802F10C0353E8003F16
:1030900043F480730C3242E800310029F3D12268F6
:1030A00002F1140353E8003F43F00103143242E8F5
:1030B00000310029F3D1226802F1140353E8003FE4
:1030C00043F04003143242E800310029F3D10020DC
:1030D00003B030BD972F00087D2F0008B32B0008E8
:1030E00008B590F83E30DBB2202B0DD171B17AB12A
:1030F00090F83C30012B0DD0012380F83C300023A8
:103100000363FFF799FF00E0022008BD0120FCE700
:103110000120FAE70220F8E7034AD2F8883043F4A6
:103120007003C2F88830704700ED00E000F108033A
:1031300043604FF0FF328260C3600361002303608D
:10314000704700230361704743684B609A688A6048
:10315000516099600861036801330360704730B4BF
:103160000D68B5F1FF3F11D000F108031C465B6804
:103170001A68AA42FAD963684B6099608C606160F2
:10318000086103680133036030BC70470469F2E7EB
:103190000369416882688A60416851605A68824266
:1031A00006D0002202611A68013A1A601868704756
:1031B00082685A60F5E710B5044601F0CBF8A26BBF
:1031C000E36B9A4204D0002401F0E6F8204610BDDB
:1031D0000124F9E770B504461546866B026C5AB9AE
:1031E00003681BB100200136A66370BD806800F043
:1031F0005FFE0023A360F6E76DB9406801F040FA76
:103200006368226C13446360A268934219D32368F5
:1032100063602846E7E7C06801F032FAE368226C91
:1032200051429B1AE3602268934202D2A3680B4486
:10323000E360022D01D00020D5E726B1013E002039
:10324000D1E72846CFE70020CDE738B5054601F0A5
:1032500081F895F8454064B201E0013C64B2002C6D
:103260000ADD6B6A43B105F1240000F077FD002808
:10327000F3D000F007FEF0E7FF2385F8453001F0BA
:103280008BF801F067F895F8444064B201E0013C26
:1032900064B2002C0ADD2B6943B105F1100000F087
:1032A0005DFD0028F3D000F0EDFDF0E7FF2385F889
:1032B000443001F071F838BD38B5E0B10D46044630
:1032C00001F048F82368E26B216C01FB0230A0603A
:1032D0000020A0636360013A02FB0133E360FF2337
:1032E00084F8443084F84530FDB9236963B901F0AE
:1032F00053F8012038BD4FF0500383F31188BFF31A
:103300006F8FBFF34F8FFEE704F1100000F026FD32
:103310000028ECD04FF0E0234FF08052C3F8042D8A
:10332000BFF34F8FBFF36F8FE1E704F11000FFF79A
:10333000FDFE04F12400FFF7F9FED8E710B50346BF
:1033400002980C4631B90060C36304640121FFF7A1
:10335000B3FF10BD0260F7E740B94FF0500383F3AD
:103360001188BFF36F8FBFF34F8FFEE710B584B0A6
:103370001C46844653B192B189B94FF0500383F390
:103380001188BFF36F8FBFF34F8FFEE74FF05003ED
:1033900083F31188BFF36F8FBFF34F8FFEE76AB1DE
:1033A00048230393039B482B13D04FF0500383F320
:1033B0001188BFF36F8FBFF34F8FFEE70029EFD067
:1033C0004FF0500383F31188BFF36F8FBFF34F8F1C
:1033D000FEE7039B012384F8463000949DF81830E3
:1033E0006046FFF7ABFF204604B010BD40B94FF078
:1033F000500383F31188BFF36F8FBFF34F8FFEE746
:10340000F0B583B00D461446064601FB00F0483087
:1034100000F074FE074650B1002380F8463000905B
:10342000234600F1480229463046FFF787FF384619
:1034300003B0F0BDF0B585B0019288B10F461D46CE
:103440000446B1B1022D20D1E36B012B1DD04FF00A
:10345000500383F31188BFF36F8FBFF34F8FFEE7E5
:103460004FF0500383F31188BFF36F8FBFF34F8F7B
:10347000FEE7036C002BE5D04FF0500383F3118877
:10348000BFF36F8FBFF34F8FFEE700F001FD0646DD
:1034900058B9019B002B48D04FF0500383F311889B
:1034A000BFF36F8FBFF34F8FFEE700263DE02A4644
:1034B00039462046FFF78EFE636A7BB948B14FF06C
:1034C000E0234FF08052C3F8042DBFF34F8FBFF3BA
:1034D0006F8F00F061FF012005B0F0BD04F1240002
:1034E00000F03CFC0028F4D04FF0E0234FF0805275
:1034F000C3F8042DBFF34F8FBFF36F8FE9E700F0E0
:103500004BFF0020E8E702A800F06EFC012619E05E
:10351000002384F8443021E0002384F8453023E080
:103520002046FFF792FE00F013FB00F013FFA26BA2
:10353000E36B9A42BBD3022DB9D0019B002BDED0A6
:10354000002EE0D000F028FF00F06EFA00F002FF3D
:1035500094F8442052B2B2F1FF3FD9D094F84520FC
:1035600052B2B2F1FF3FD7D000F016FF01A902A876
:1035700000F046FCD8B92046FFF71DFE0028CFD04A
:10358000019904F1100000F0D1FB2046FFF75DFE29
:1035900000F0DEFA0028C8D14FF0E0234FF080524F
:1035A000C3F8042DBFF34F8FBFF36F8FBDE72046E5
:1035B000FFF74BFE00F0CCFA00208DE7084B1B68AC
:1035C0001B6823B9074B4FF0FF321A607047044B5A
:1035D0001B68DB68DB685A68024B1A60704700BFE3
:1035E0003C050020D40400202DE9F047074698460A
:1035F000089DDDF824900A9C266B02F18042013A76
:1036000006EB820626F00706C1B308464FF0000C11
:10361000BCF10F0F09D810F80C2004EB0C0383F851
:10362000342012B10CF1010CF2E7002384F843308E
:10363000062D00D90625E56265644FF0000AC4F83E
:1036400048A0201DFFF77DFD04F11800FFF779FD6C
:103650002461C5F10705A5616462C4F84CA084F833
:1036600050A042463946304600F046FE2060B9F18F
:10367000000F01D0C9F80040BDE8F087002384F8AE
:103680003430D5E738B5002407E004EB840293001A
:103690000E481844FFF74AFD0134062CF5D90C4DAD
:1036A0002846FFF743FD0B4C2046FFF73FFD0A4835
:1036B000FFF73CFD0948FFF739FD0948FFF736FDE4
:1036C000084B1D60084B1C6038BD00BF680500201A
:1036D000540500204005002024050020100500208E
:1036E000F80400203C0500203805002010B50446F1
:1036F00000F030FE214A136801331360204B1B6831
:103700005BB1204B1B686BB91D4B1B68DA6AE36A1F
:103710009A4207D81A4B1C6004E0194B1C601368CE
:10372000012B28D0184A136801331360E06A012383
:103730008340164A11680B43136000EB8000211D83
:10374000134B03EB8000FFF7FFFC00F025FE0D4B51
:103750001B687BB10A4B1B68DA6AE36A9A4209D29A
:103760004FF0E0234FF08052C3F8042DBFF34F8F8A
:10377000BFF36F8F10BDFFF785FFD3E7F404002080
:10378000F4050020E8040020D8040020EC04002008
:103790006805002010B5044690F8513063B1012B44
:1037A00011D0022B0ED04FF0500383F31188BFF3DA
:1037B0006F8FBFF34F8FFEE7006B00F021FD2046B7
:1037C00000F01EFD10BD00F01BFDFBE70F4B1B685A
:1037D000D3B110B500F0BEFD0D4BDB68DC68201DD9
:1037E000FFF7D6FC0B4A1368013B1360074A1368C6
:1037F000013B136000F0D0FD2046FFF7CBFF034BE9
:103800001B68002BE6D110BD704700BF0C050020DF
:1038100010050020F404002008B5FFF7D7FF074B80
:103820001B68012BF9D94FF0E0234FF08052C3F809
:10383000042DBFF34F8FBFF36F8FEEE768050020B5
:1038400070B504460D461D4B1E681D4B18680430AC
:10385000FFF79EFC48B91A4B1B68DB6A01229A40AD
:1038600018490B6823EA02030B60B4F1FF3F0DD047
:103870003444134B1B685C60A64210D9124B186885
:103880000F4B19680431FFF76AFC70BD002DEFD0B3
:103890000B4B196804310D48FFF756FCF5E70C4B4C
:1038A0001868074B19680431FFF759FC094B1B686E
:1038B000A342EAD9074B1C60E7E700BFF0040020F1
:1038C000F4050020EC04002038050020F804002056
:1038D0003C050020D404002030B587B00B9C7CB19F
:1038E0000C9DB5B154250495049D542D1AD04FF06C
:1038F000500383F31188BFF36F8FBFF34F8FFEE741
:103900004FF0500383F31188BFF36F8FBFF34F8FD6
:10391000FEE74FF0500383F31188BFF36F8FBFF3BF
:103920004F8FFEE7049D0C9D2C63022485F85140C7
:1039300000240394029505AC01940A9C0094FFF7BF
:1039400053FE0C98FFF7D2FE059807B030BD2DE965
:10395000F04385B00746884614461E46900000F0A6
:10396000CDFB08B38146542000F0C8FB0546A8B142
:10397000C0F83090002380F85130039302900D9BE3
:1039800001930C9B00933346224641463846FFF78D
:103990002BFE2846FFF7AAFE012007E0484600F06C
:1039A0002FFC4FF0FF3001E04FF0FF3005B0BDE8D5
:1039B000F083000010B588B000240594069407AA8F
:1039C00006A905A8FCF79AFE059B0293069B0193A6
:1039D00000942346079A0E490E48FFF77DFF0E4BD1
:1039E000186090B14FF0500383F31188BFF36F8FCD
:1039F000BFF34F8F094B4FF0FF321A60084B012283
:103A00001A60084B1C6000F03FFD08B010BD00BFFD
:103A1000084A000819380008D0040020D404002007
:103A2000E8040020F0040020024A13680133136008
:103A3000704700BFCC040020F8B53A4B1B68002B40
:103A400069D1394B1D6801351D60C5B9374B1B68FD
:103A50001B6843B14FF0500383F31188BFF36F8F9E
:103A6000BFF34F8FFEE7314A1168314B1868106081
:103A70001960304A136801331360FFF79FFD2E4B26
:103A80001B68AB423DD900272C4B1B68DB6A03EB5C
:103A900083039A002A4B9B58012B00D90127294BFD
:103AA0001B68002B3CD001273AE001271F4B1B6805
:103AB0001B6843B31D4B1B68DB68DC6863689D4271
:103AC00026D3261D3046FFF763FBA36A1BB104F122
:103AD0001800FFF75DFBE36A01229A401A49086863
:103AE00002430A6003EB83039A00314614481044F2
:103AF000FFF72AFBE26A114B1B68DB6A9A42D4D2B9
:103B0000D4E70027D2E70C4B4FF0FF321A60BBE737
:103B1000094A1360B8E70D4A1368013313600027A0
:103B20003846F8BDCC040020F00400203C050020FD
:103B300038050020DC040020D4040020F405002017
:103B400068050020E0040020EC040020E4040020CC
:103B500038B5354B1B6843B94FF0500383F31188D8
:103B6000BFF36F8FBFF34F8FFEE700F0F3FB2E4BD9
:103B70001A68013A1A601B68002B4FD12B4B1B6847
:103B80000BB900244BE00024294B1B681BB3284BC6
:103B9000DB68DC6804F11800FFF7FAFA251D2846F7
:103BA000FFF7F6FAE06A01238340224A11680B43CB
:103BB000136000EB800029461F4B03EB8000FFF7EA
:103BC000C3FAE26A1D4B1B68DB6A9A42DCD31C4BCA
:103BD00001221A60D8E70CB1FFF7F0FC194B1C6802
:103BE00084B9174B1C68D4B14FF0E0234FF08052DA
:103BF000C3F8042DBFF34F8FBFF36F8F01240EE086
:103C0000013C07D0FFF718FF0028F9D00C4B012228
:103C10001A60F5E70B4B00221A60E2E7002400F07F
:103C2000BBFB204638BD00BFCC040020F4040020BC
:103C300024050020EC04002068050020F405002085
:103C4000E0040020E404002010B5A8B10446104BA5
:103C50001B6843B14FF0500383F31188BFF36F8F9C
:103C6000BFF34F8FFEE7FFF7DFFE00212046FFF78F
:103C7000E7FDFFF76DFF48B94FF0E0234FF08052AA
:103C8000C3F8042DBFF34F8FBFF36F8F10BD00BF7C
:103C9000CC040020204B1B681BB1204B01221A6072
:103CA00070471E4B00221A601D4B1B68B3FA83F34A
:103CB000DBB2C3F11F0303EB83018A0019498A5861
:103CC00042B94FF0500383F31188BFF36F8FBFF3F6
:103CD0004F8FFEE7134803EB83018A0002445168CB
:103CE0004968516003EB830C4FEA8C0208320244AE
:103CF000914209D003EB83039A000A4B13445B689B
:103D0000DA68094B1A607047486862469100054AB4
:103D10000A445060EEE700BFCC040020E00400201D
:103D2000EC04002068050020F405002058B110B50F
:103D30000C46094A11681831FFF711FA0121204693
:103D4000FFF77EFD10BD4FF0500383F31188BFF3E2
:103D50006F8FBFF34F8FFEE7F405002038B5C368BF
:103D6000DC6824B304F118052846FFF711FA184B54
:103D70001B682BBB251D2846FFF70AFAE06A0123C2
:103D80008340144A11680B43136000EB80002946FE
:103D9000114B03EB8000FFF7D7F9E26A0F4B1B686A
:103DA000DB6A9A4211D901200D4B186038BD4FF0E3
:103DB000500383F31188BFF36F8FBFF34F8FFEE77C
:103DC00029460848FFF7C0F9E7E70020EEE700BF03
:103DD000CC040020EC04002068050020F40500203D
:103DE000E004002024050020034B1B680360034B04
:103DF0001B684360704700BFDC040020F004002013
:103E0000F8B5C8B10C460546F9B100F0A3FA1B4B52
:103E100019686B68C81A2268B2F1FF3F26D0184EA5
:103E200036682F68B74201D08B4224D9824215D818
:103E30000023236001241AE04FF0500383F311881C
:103E4000BFF36F8FBFF34F8FFEE74FF0500383F345
:103E50001188BFF36F8FBFF34F8FFEE75B1A1344D8
:103E600023602846FFF7C0FF002400E0002400F094
:103E700093FA2046F8BD0124F9E700BFF0040020C2
:103E8000DC040020014B01221A607047E00400208E
:103E9000054B1B6833B1054B1B680BB10020704705
:103EA0000220704701207047E8040020CC04002065
:103EB00000284BD038B50446264B1B68834208D0F7
:103EC0004FF0500383F31188BFF36F8FBFF34F8F11
:103ED000FEE7836C43B94FF0500383F31188BFF3BF
:103EE0006F8FBFF34F8FFEE7013B8364C16A426C63
:103EF00091422DD00BB1002038BD051D2846FFF79B
:103F000047F968B9E36A03EB8302920012498A58C1
:103F100032B901229A4011490B6823EA02030B606F
:103F2000606CE062C0F10703A361012404FA00F3AE
:103F30000A4A11680B43136000EB80002946064BC8
:103F400003EB8000FFF700F92046D5E7002070471B
:103F50000020D1E7F405002068050020EC040020D3
:103F6000842801D0033070470020704708B5FFF760
:103F700021FD002008BD2DE9F04387B00E464469BD
:103F8000C4B18569B5B14768D0F80080D0F8109009
:103F9000B0F90800FFF7E4FF029501940090334662
:103FA0004A4641463846FFF797FC0590059807B00A
:103FB000BDE8F083446805680769B0F90800FFF7B9
:103FC000CFFF05AB019300903346BAB22946204695
:103FD000FFF7BDFC0128E9D00020E8E708B500B9EB
:103FE0000120FFF731FE002008BD10B582B0446803
:103FF0007CB1012903D00024204602B010BD032368
:1040000000932346002211460120FFF7A5F904463C
:10401000F2E70129F0D1032200210120FFF7E6F9A0
:1040200004460028E8D000231A461946FFF702FA92
:10403000E2E70000124A12F0070F1ED0D11D21F056
:104040000701C1F5705313440A460E48026000216F
:1040500041601344083B23F007030B480360596099
:104060001960991A51601360084B1960084B196068
:10407000084B4FF000421A6070474FF47053E4E76A
:1040800018060020100600200C0600200406002060
:1040900008060020F8050020164B1A461B688342CC
:1040A000FBD3516802EB010C844509D0416800EB59
:1040B000010C634509D00360904219D0106070472D
:1040C0004068014451601046F0E710B40A4C24687F
:1040D000A3420BD05B681944416013681B680360FE
:1040E000904200D010605DF8044B70470460F7E721
:1040F000704700BF100600200C06002038B50446AB
:10410000FFF792FC384B1B68B3B1384B1B681C425D
:1041100050D1002C50D004F1080214F0070F02D047
:1041200022F007020832002A55D0314B1B68934217
:1041300053D330490C6804E0FFF77CFFE5E72146E4
:104140001C466368934202D22368002BF7D1264BAA
:104150001B68A34243D00D68083523680B60636871
:104160009B1A102B10D9A01810F0070F08D04FF091
:10417000500383F31188BFF36F8FBFF34F8FFEE7B8
:1041800043606260FFF788FF626819490B689B1AF9
:104190000B60194909688B4201D217490B60134B18
:1041A0001B681343636000232360144A13680133C0
:1041B000136002E0002500E00025FFF7C9FC15F0C0
:1041C000070F0ED04FF0500383F31188BFF36F8FAA
:1041D000BFF34F8FFEE70025EFE70025EDE7002551
:1041E000EBE7284638BD00BF0C060020F80500208C
:1041F000080600201006002004060020000600200B
:10420000002834D038B50446A0F1080550F8043C25
:10421000174A1268134208D14FF0500383F31188F4
:10422000BFF36F8FBFF34F8FFEE750F8081C41B10B
:104230004FF0500383F31188BFF36F8FBFF34F8F9D
:10424000FEE723EA020340F8043CFFF7EDFB54F8D5
:10425000041C084A13680B4413602846FFF71CFF30
:10426000054A136801331360FFF772FC38BD7047CD
:10427000F805002008060020FC05002082B000237D
:1042800001930D4B1B68B3F1FF3F08D04FF0500373
:1042900083F31188BFF36F8FBFF34F8FFEE74FF0AB
:1042A000500383F31188BFF36F8FBFF34F8F019BD0
:1042B000002BFCD002B070474C000020084800687A
:1042C000006880F308884FF0000080F3148862B61D
:1042D00061B6BFF34F8FBFF36F8F00DF00BF0000E9
:1042E00008ED00E0DFF80C00016841F470010160A6
:1042F0007047000088ED00E04FF0807340F8043C08
:1043000021F0010140F8081C054B40F80C3C40F836
:10431000202C6FF0020340F8243C4438704700BF63
:104320007D420008000000000000000000000000C6
:10433000074B19680868B0E8F04F80F30988BFF3AD
:104340006F8F4FF0000080F311887047AFF300804B
:10435000F40500204FF0500383F31188BFF36F8FF3
:10436000BFF34F8F0B4A136801331360012B00D04A
:1043700070474FF0E023D3F8043D13F0FF0FF7D060
:104380004FF0500383F31188BFF36F8FBFF34F8F4C
:10439000FEE700BF4C000020094B1B6843B94FF0FB
:1043A000500383F31188BFF36F8FBFF34F8FFEE786
:1043B000013B034A13600BB983F31188704700BFB8
:1043C0004C00002000000000000000000000000081
:1043D000EFF30980BFF36F8F154B1A681EF0100FB3
:1043E00008BF20ED108A20E9F04F10602DE9090088
:1043F0004FF0500080F31188BFF34F8FBFF36F8FE2
:10440000FFF748FC4FF0000080F3118809BC1968E1
:104410000868B0E8F04F1EF0100F08BFB0EC108A2B
:1044200080F30988BFF36F8F704700BFAFF3008040
:10443000F405002008B54FF0500383F31188BFF353
:104440006F8FBFF34F8FFFF7F7FA28B14FF0E023DC
:104450004FF08052C3F8042D002383F3118808BD68
:104460004FF0E022002313619361054B1B6805495F
:10447000A1FB03139B09013B5361072313617047A1
:1044800048000020D34D62104FF0E023D3F8002DF8
:104490003D4B9A421CD04FF0E023D3F8002D3B4B0C
:1044A0009A421ED030B583B0394B1A78D2B20192FD
:1044B000FF221A701B78DBB28DF803309DF80330B1
:1044C00003F05003334A1370334B07221A601BE08A
:1044D0004FF0500383F31188BFF36F8FBFF34F8FFB
:1044E000FEE74FF0500383F31188BFF36F8FBFF3E4
:1044F0004F8FFEE7284A1368013B13609DF8033095
:104500005B00DBB28DF803309DF8033013F0800FB1
:10451000F0D1214B1B68032B08D04FF0500383F3DD
:104520001188BFF36F8FBFF34F8FFEE71B021A4A4C
:10453000136003F4E0631360019BDBB2144A137051
:104540004FF0E024D4F8203D43F47003C4F8203D3C
:10455000D4F8203D43F07043C4F8203DFFF780FFBE
:1045600000250E4B1D60FFF7BDFED4F8343F43F02D
:104570004043C4F8343FFFF7A1FEFFF78BFBFFF782
:104580007DFE284603B030BD71C20F4170C20F419D
:1045900000E400E01C420020184200204C000020F3
:1045A00000B583B000220192094B196B41F48001E0
:1045B00019631B6B03F480030193019B05213920D0
:1045C000FDF7CCFD3920FDF7D9FD03B05DF804FB04
:1045D00000380240DFF834D00D480E490E4A00235F
:1045E00002E0D458C4500433C4188C42F9D30B4AA7
:1045F0000B4C002301E013600432A242FBD3FEF710
:104600008BFD00F019F8FBF78BFE704700000220CD
:104610000000002050000020204A00085000002028
:1046200020420020FEE702440346934200D1704737
:1046300003F8011BF9E7000070B50D4D0D4C641B2C
:10464000A4100026A64209D10B4D0C4C00F084F9B1
:10465000641BA4100026A64205D170BD55F8043B8A
:1046600098470136EEE755F8043B98470136F2E7E4
:10467000184A0008184A0008184A00081C4A00088E
:104680000A44914200F1FF3300D1704710B511F890
:10469000014B03F8014F9142F9D110BD2DE9F047CC
:1046A000089D0C46002B4ED194468C458646B2FAA6
:1046B00082F262D94AB1C2F12003914020FA03F399
:1046C0000CFA02FC194300FA02FE4FEA1C471FFADB
:1046D0008CF6B1FBF7F44FEA1E4307FB141143EAD3
:1046E000014304FB06F199420AD91CEB030304F1D0
:1046F000FF3080F01281994240F20F81023C634406
:10470000591A1FFA8EF3B1FBF7F007FB101143EAB9
:10471000014300FB06F69E420AD91CEB030300F19D
:10472000FF3180F0FC809E4240F2F9806344023801
:104730009B1B40EA044000211DB1D3400022C5E983
:104740000032BDE8F0878B4205D90DB1C5E9000103
:1047500000210846F5E7B3FA83F1002946D1A342C8
:1047600002D39042C0F0F080861A64EB030301206C
:10477000002DE6D0C5E90063E3E7002A40F0908011
:10478000A1EB0C044FEA1C481FFA8CF70121B4FB83
:10479000F8F64FEA1E4308FB164443EA044307FBBE
:1047A00006F0984208D91CEB030306F1FF3402D24D
:1047B000984200F2CD8026461C1A1FFA8EF3B4FBF5
:1047C000F8F008FB104443EA044300FB07F79F425C
:1047D00008D91CEB030300F1FF3402D29F4200F220
:1047E000B0802046DB1B40EA0640A5E7C1F1200669
:1047F0008B4022FA06F71F4320FA06FC04FA01F365
:1048000043EA0C03F44000FA01F8380C4FEA13496C
:10481000B4FBF0FE1FFA87FC00FB1E4449EA044487
:104820000EFB0CF9A14502FA01F20AD93C190EF16E
:10483000FF3A80F08480A14540F28180AEF1020E03
:104840003C44A4EB09041FFA83F9B4FBF0F300FB2A
:10485000134449EA044403FB0CFCA44507D93C1962
:1048600003F1FF3067D2A44565D9023B3C4443EADB
:104870000E40A0FB0293A4EB0C049C42CE469C4647
:1048800051D34ED055B1B8EB0E0364EB0C0404FACF
:1048900006F6CB401E43CC40C5E90064002150E73A
:1048A000C2F1200320FA03F10CFA02FC24FA03F30C
:1048B00094400C434FEA1C4800FA02FE1FFA8CF7A2
:1048C000B3FBF8F008FB1031230C43EA014300FB73
:1048D00007F1994208D91CEB030300F1FF362CD2F3
:1048E00099422AD9023863445B1AA4B2B3FBF8F1A7
:1048F00008FB113344EA034401FB07F3A34208D940
:104900001CEB040401F1FF3613D2A34211D9023982
:104910006444E41A41EA004139E70446F0E60846F7
:1049200006E7C845AED2B9EB020E63EB070C0138BF
:10493000A8E73146EDE7034699E73046D4E7D64687
:104940007FE7634402384DE70646234608460FE7F3
:10495000023E634430E700BFF8B500BFF8BC08BCB6
:104960009E467047F8B500BFF8BC08BC9E4670472D
:10497000DC490008D5060008000000000000000027
:10498000800000000000000000000000D049000886
:10499000DF060008FDFF00000000000080000000AE
:1049A0000000000000000000C4490008ED060008F7
:1049B000FDFF00000000000080000000000000007B
:1049C0000000000044726976655461736B0000005A
:1049D000436F6D6D5461736B000000006465666128
:1049E000756C745461736B00000610160006101687
:1049F00000000000010203040000000000000000AD
:104A0000010203040607080949444C450000000060
:084A10008CFCFF7F0100000097
:044A18003D02000853
:044A1C001502000877
:104A200000000000ECFFFFFFF1FFFFFFF6FFFFFFBC
:104A3000F8FFFFFFFBFFFFFFFDFFFFFF030000008C
:104A400005000000080000000A0000000F00000040
:104A500014000000000000000000A0410000A04180
:104A600001000000100000000024F400AAAAAAAA75
:04000005080045D5D5
:00000001FF
